{
  "contractName": "Hootenani",
  "abi": [
    {
      "inputs": [
        {
          "internalType": "address",
          "name": "creator",
          "type": "address"
        }
      ],
      "stateMutability": "nonpayable",
      "type": "constructor"
    },
    {
      "anonymous": false,
      "inputs": [
        {
          "indexed": true,
          "internalType": "address",
          "name": "owner",
          "type": "address"
        },
        {
          "indexed": true,
          "internalType": "address",
          "name": "spender",
          "type": "address"
        },
        {
          "indexed": false,
          "internalType": "uint256",
          "name": "value",
          "type": "uint256"
        }
      ],
      "name": "Approval",
      "type": "event"
    },
    {
      "anonymous": false,
      "inputs": [
        {
          "indexed": true,
          "internalType": "address",
          "name": "previousOwner",
          "type": "address"
        },
        {
          "indexed": true,
          "internalType": "address",
          "name": "newOwner",
          "type": "address"
        }
      ],
      "name": "OwnershipTransferred",
      "type": "event"
    },
    {
      "anonymous": false,
      "inputs": [
        {
          "indexed": true,
          "internalType": "address",
          "name": "from",
          "type": "address"
        },
        {
          "indexed": true,
          "internalType": "address",
          "name": "to",
          "type": "address"
        },
        {
          "indexed": false,
          "internalType": "uint256",
          "name": "value",
          "type": "uint256"
        }
      ],
      "name": "Transfer",
      "type": "event"
    },
    {
      "inputs": [
        {
          "internalType": "address",
          "name": "owner",
          "type": "address"
        },
        {
          "internalType": "address",
          "name": "spender",
          "type": "address"
        }
      ],
      "name": "allowance",
      "outputs": [
        {
          "internalType": "uint256",
          "name": "",
          "type": "uint256"
        }
      ],
      "stateMutability": "view",
      "type": "function"
    },
    {
      "inputs": [
        {
          "internalType": "address",
          "name": "spender",
          "type": "address"
        },
        {
          "internalType": "uint256",
          "name": "amount",
          "type": "uint256"
        }
      ],
      "name": "approve",
      "outputs": [
        {
          "internalType": "bool",
          "name": "",
          "type": "bool"
        }
      ],
      "stateMutability": "nonpayable",
      "type": "function"
    },
    {
      "inputs": [
        {
          "internalType": "address",
          "name": "account",
          "type": "address"
        }
      ],
      "name": "balanceOf",
      "outputs": [
        {
          "internalType": "uint256",
          "name": "",
          "type": "uint256"
        }
      ],
      "stateMutability": "view",
      "type": "function"
    },
    {
      "inputs": [
        {
          "internalType": "address",
          "name": "spender",
          "type": "address"
        },
        {
          "internalType": "uint256",
          "name": "subtractedValue",
          "type": "uint256"
        }
      ],
      "name": "decreaseAllowance",
      "outputs": [
        {
          "internalType": "bool",
          "name": "",
          "type": "bool"
        }
      ],
      "stateMutability": "nonpayable",
      "type": "function"
    },
    {
      "inputs": [
        {
          "internalType": "address",
          "name": "spender",
          "type": "address"
        },
        {
          "internalType": "uint256",
          "name": "addedValue",
          "type": "uint256"
        }
      ],
      "name": "increaseAllowance",
      "outputs": [
        {
          "internalType": "bool",
          "name": "",
          "type": "bool"
        }
      ],
      "stateMutability": "nonpayable",
      "type": "function"
    },
    {
      "inputs": [],
      "name": "name",
      "outputs": [
        {
          "internalType": "string",
          "name": "",
          "type": "string"
        }
      ],
      "stateMutability": "view",
      "type": "function"
    },
    {
      "inputs": [],
      "name": "owner",
      "outputs": [
        {
          "internalType": "address",
          "name": "",
          "type": "address"
        }
      ],
      "stateMutability": "view",
      "type": "function"
    },
    {
      "inputs": [],
      "name": "renounceOwnership",
      "outputs": [],
      "stateMutability": "nonpayable",
      "type": "function"
    },
    {
      "inputs": [],
      "name": "symbol",
      "outputs": [
        {
          "internalType": "string",
          "name": "",
          "type": "string"
        }
      ],
      "stateMutability": "view",
      "type": "function"
    },
    {
      "inputs": [],
      "name": "totalSupply",
      "outputs": [
        {
          "internalType": "uint256",
          "name": "",
          "type": "uint256"
        }
      ],
      "stateMutability": "view",
      "type": "function"
    },
    {
      "inputs": [
        {
          "internalType": "address",
          "name": "to",
          "type": "address"
        },
        {
          "internalType": "uint256",
          "name": "amount",
          "type": "uint256"
        }
      ],
      "name": "transfer",
      "outputs": [
        {
          "internalType": "bool",
          "name": "",
          "type": "bool"
        }
      ],
      "stateMutability": "nonpayable",
      "type": "function"
    },
    {
      "inputs": [
        {
          "internalType": "address",
          "name": "from",
          "type": "address"
        },
        {
          "internalType": "address",
          "name": "to",
          "type": "address"
        },
        {
          "internalType": "uint256",
          "name": "amount",
          "type": "uint256"
        }
      ],
      "name": "transferFrom",
      "outputs": [
        {
          "internalType": "bool",
          "name": "",
          "type": "bool"
        }
      ],
      "stateMutability": "nonpayable",
      "type": "function"
    },
    {
      "inputs": [
        {
          "internalType": "address",
          "name": "newOwner",
          "type": "address"
        }
      ],
      "name": "transferOwnership",
      "outputs": [],
      "stateMutability": "nonpayable",
      "type": "function"
    },
    {
      "inputs": [],
      "name": "decimals",
      "outputs": [
        {
          "internalType": "uint8",
          "name": "",
          "type": "uint8"
        }
      ],
      "stateMutability": "view",
      "type": "function"
    },
    {
      "inputs": [
        {
          "internalType": "uint256",
          "name": "amount",
          "type": "uint256"
        }
      ],
      "name": "burn",
      "outputs": [
        {
          "internalType": "bool",
          "name": "",
          "type": "bool"
        }
      ],
      "stateMutability": "nonpayable",
      "type": "function"
    }
  ],
  "bytecode": "0x60806040523480156200001157600080fd5b50604051620023fa380380620023fa8339818101604052810190620000379190620003e8565b6040518060400160405280600981526020017f486f6f74656e616e6900000000000000000000000000000000000000000000008152506040518060400160405280600481526020017f486f6f74000000000000000000000000000000000000000000000000000000008152508160039081620000b4919062000694565b508060049081620000c6919062000694565b505050620000e9620000dd6200013060201b60201c565b6200013860201b60201c565b6200012981620000fe620001fe60201b60201c565b600a6200010c91906200090b565b6359682f006200011d91906200095c565b6200020760201b60201c565b5062000a93565b600033905090565b6000600560009054906101000a900473ffffffffffffffffffffffffffffffffffffffff16905081600560006101000a81548173ffffffffffffffffffffffffffffffffffffffff021916908373ffffffffffffffffffffffffffffffffffffffff1602179055508173ffffffffffffffffffffffffffffffffffffffff168173ffffffffffffffffffffffffffffffffffffffff167f8be0079c531659141344cd1fd0a4f28419497f9722a3daafe3b4186f6b6457e060405160405180910390a35050565b60006008905090565b600073ffffffffffffffffffffffffffffffffffffffff168273ffffffffffffffffffffffffffffffffffffffff160362000279576040517f08c379a0000000000000000000000000000000000000000000000000000000008152600401620002709062000a08565b60405180910390fd5b6200028d600083836200037460201b60201c565b8060026000828254620002a1919062000a2a565b92505081905550806000808473ffffffffffffffffffffffffffffffffffffffff1673ffffffffffffffffffffffffffffffffffffffff168152602001908152602001600020600082825401925050819055508173ffffffffffffffffffffffffffffffffffffffff16600073ffffffffffffffffffffffffffffffffffffffff167fddf252ad1be2c89b69c2b068fc378daa952ba7f163c4a11628f55a4df523b3ef8360405162000354919062000a76565b60405180910390a362000370600083836200037960201b60201c565b5050565b505050565b505050565b600080fd5b600073ffffffffffffffffffffffffffffffffffffffff82169050919050565b6000620003b08262000383565b9050919050565b620003c281620003a3565b8114620003ce57600080fd5b50565b600081519050620003e281620003b7565b92915050565b6000602082840312156200040157620004006200037e565b5b60006200041184828501620003d1565b91505092915050565b600081519050919050565b7f4e487b7100000000000000000000000000000000000000000000000000000000600052604160045260246000fd5b7f4e487b7100000000000000000000000000000000000000000000000000000000600052602260045260246000fd5b600060028204905060018216806200049c57607f821691505b602082108103620004b257620004b162000454565b5b50919050565b60008190508160005260206000209050919050565b60006020601f8301049050919050565b600082821b905092915050565b6000600883026200051c7fffffffffffffffffffffffffffffffffffffffffffffffffffffffffffffffff82620004dd565b620005288683620004dd565b95508019841693508086168417925050509392505050565b6000819050919050565b6000819050919050565b6000620005756200056f620005698462000540565b6200054a565b62000540565b9050919050565b6000819050919050565b620005918362000554565b620005a9620005a0826200057c565b848454620004ea565b825550505050565b600090565b620005c0620005b1565b620005cd81848462000586565b505050565b5b81811015620005f557620005e9600082620005b6565b600181019050620005d3565b5050565b601f82111562000644576200060e81620004b8565b6200061984620004cd565b8101602085101562000629578190505b620006416200063885620004cd565b830182620005d2565b50505b505050565b600082821c905092915050565b6000620006696000198460080262000649565b1980831691505092915050565b600062000684838362000656565b9150826002028217905092915050565b6200069f826200041a565b67ffffffffffffffff811115620006bb57620006ba62000425565b5b620006c7825462000483565b620006d4828285620005f9565b600060209050601f8311600181146200070c5760008415620006f7578287015190505b62000703858262000676565b86555062000773565b601f1984166200071c86620004b8565b60005b8281101562000746578489015182556001820191506020850194506020810190506200071f565b8683101562000766578489015162000762601f89168262000656565b8355505b6001600288020188555050505b505050505050565b7f4e487b7100000000000000000000000000000000000000000000000000000000600052601160045260246000fd5b60008160011c9050919050565b6000808291508390505b60018511156200080957808604811115620007e157620007e06200077b565b5b6001851615620007f15780820291505b80810290506200080185620007aa565b9450620007c1565b94509492505050565b600082620008245760019050620008f7565b81620008345760009050620008f7565b81600181146200084d576002811462000858576200088e565b6001915050620008f7565b60ff8411156200086d576200086c6200077b565b5b8360020a9150848211156200088757620008866200077b565b5b50620008f7565b5060208310610133831016604e8410600b8410161715620008c85782820a905083811115620008c257620008c16200077b565b5b620008f7565b620008d78484846001620007b7565b92509050818404811115620008f157620008f06200077b565b5b81810290505b9392505050565b600060ff82169050919050565b6000620009188262000540565b91506200092583620008fe565b9250620009547fffffffffffffffffffffffffffffffffffffffffffffffffffffffffffffffff848462000812565b905092915050565b6000620009698262000540565b9150620009768362000540565b9250828202620009868162000540565b91508282048414831517620009a0576200099f6200077b565b5b5092915050565b600082825260208201905092915050565b7f45524332303a206d696e7420746f20746865207a65726f206164647265737300600082015250565b6000620009f0601f83620009a7565b9150620009fd82620009b8565b602082019050919050565b6000602082019050818103600083015262000a2381620009e1565b9050919050565b600062000a378262000540565b915062000a448362000540565b925082820190508082111562000a5f5762000a5e6200077b565b5b92915050565b62000a708162000540565b82525050565b600060208201905062000a8d600083018462000a65565b92915050565b6119578062000aa36000396000f3fe608060405234801561001057600080fd5b50600436106100f55760003560e01c806370a0823111610097578063a457c2d711610066578063a457c2d71461028a578063a9059cbb146102ba578063dd62ed3e146102ea578063f2fde38b1461031a576100f5565b806370a0823114610214578063715018a6146102445780638da5cb5b1461024e57806395d89b411461026c576100f5565b806323b872dd116100d357806323b872dd14610166578063313ce5671461019657806339509351146101b457806342966c68146101e4576100f5565b806306fdde03146100fa578063095ea7b31461011857806318160ddd14610148575b600080fd5b610102610336565b60405161010f9190610fbb565b60405180910390f35b610132600480360381019061012d9190611076565b6103c8565b60405161013f91906110d1565b60405180910390f35b6101506103eb565b60405161015d91906110fb565b60405180910390f35b610180600480360381019061017b9190611116565b6103f5565b60405161018d91906110d1565b60405180910390f35b61019e610424565b6040516101ab9190611185565b60405180910390f35b6101ce60048036038101906101c99190611076565b61042d565b6040516101db91906110d1565b60405180910390f35b6101fe60048036038101906101f991906111a0565b610464565b60405161020b91906110d1565b60405180910390f35b61022e600480360381019061022991906111cd565b610481565b60405161023b91906110fb565b60405180910390f35b61024c6104c9565b005b6102566104dd565b6040516102639190611209565b60405180910390f35b610274610507565b6040516102819190610fbb565b60405180910390f35b6102a4600480360381019061029f9190611076565b610599565b6040516102b191906110d1565b60405180910390f35b6102d460048036038101906102cf9190611076565b610610565b6040516102e191906110d1565b60405180910390f35b61030460048036038101906102ff9190611224565b610633565b60405161031191906110fb565b60405180910390f35b610334600480360381019061032f91906111cd565b6106ba565b005b60606003805461034590611293565b80601f016020809104026020016040519081016040528092919081815260200182805461037190611293565b80156103be5780601f10610393576101008083540402835291602001916103be565b820191906000526020600020905b8154815290600101906020018083116103a157829003601f168201915b5050505050905090565b6000806103d361073d565b90506103e0818585610745565b600191505092915050565b6000600254905090565b60008061040061073d565b905061040d85828561090e565b61041885858561099a565b60019150509392505050565b60006008905090565b60008061043861073d565b905061045981858561044a8589610633565b61045491906112f3565b610745565b600191505092915050565b600061046e610c10565b6104783383610c8e565b60019050919050565b60008060008373ffffffffffffffffffffffffffffffffffffffff1673ffffffffffffffffffffffffffffffffffffffff168152602001908152602001600020549050919050565b6104d1610c10565b6104db6000610e5b565b565b6000600560009054906101000a900473ffffffffffffffffffffffffffffffffffffffff16905090565b60606004805461051690611293565b80601f016020809104026020016040519081016040528092919081815260200182805461054290611293565b801561058f5780601f106105645761010080835404028352916020019161058f565b820191906000526020600020905b81548152906001019060200180831161057257829003601f168201915b5050505050905090565b6000806105a461073d565b905060006105b28286610633565b9050838110156105f7576040517f08c379a00000000000000000000000000000000000000000000000000000000081526004016105ee90611399565b60405180910390fd5b6106048286868403610745565b60019250505092915050565b60008061061b61073d565b905061062881858561099a565b600191505092915050565b6000600160008473ffffffffffffffffffffffffffffffffffffffff1673ffffffffffffffffffffffffffffffffffffffff16815260200190815260200160002060008373ffffffffffffffffffffffffffffffffffffffff1673ffffffffffffffffffffffffffffffffffffffff16815260200190815260200160002054905092915050565b6106c2610c10565b600073ffffffffffffffffffffffffffffffffffffffff168173ffffffffffffffffffffffffffffffffffffffff1603610731576040517f08c379a00000000000000000000000000000000000000000000000000000000081526004016107289061142b565b60405180910390fd5b61073a81610e5b565b50565b600033905090565b600073ffffffffffffffffffffffffffffffffffffffff168373ffffffffffffffffffffffffffffffffffffffff16036107b4576040517f08c379a00000000000000000000000000000000000000000000000000000000081526004016107ab906114bd565b60405180910390fd5b600073ffffffffffffffffffffffffffffffffffffffff168273ffffffffffffffffffffffffffffffffffffffff1603610823576040517f08c379a000000000000000000000000000000000000000000000000000000000815260040161081a9061154f565b60405180910390fd5b80600160008573ffffffffffffffffffffffffffffffffffffffff1673ffffffffffffffffffffffffffffffffffffffff16815260200190815260200160002060008473ffffffffffffffffffffffffffffffffffffffff1673ffffffffffffffffffffffffffffffffffffffff168152602001908152602001600020819055508173ffffffffffffffffffffffffffffffffffffffff168373ffffffffffffffffffffffffffffffffffffffff167f8c5be1e5ebec7d5bd14f71427d1e84f3dd0314c0f7b2291e5b200ac8c7c3b9258360405161090191906110fb565b60405180910390a3505050565b600061091a8484610633565b90507fffffffffffffffffffffffffffffffffffffffffffffffffffffffffffffffff81146109945781811015610986576040517f08c379a000000000000000000000000000000000000000000000000000000000815260040161097d906115bb565b60405180910390fd5b6109938484848403610745565b5b50505050565b600073ffffffffffffffffffffffffffffffffffffffff168373ffffffffffffffffffffffffffffffffffffffff1603610a09576040517f08c379a0000000000000000000000000000000000000000000000000000000008152600401610a009061164d565b60405180910390fd5b600073ffffffffffffffffffffffffffffffffffffffff168273ffffffffffffffffffffffffffffffffffffffff1603610a78576040517f08c379a0000000000000000000000000000000000000000000000000000000008152600401610a6f906116df565b60405180910390fd5b610a83838383610f21565b60008060008573ffffffffffffffffffffffffffffffffffffffff1673ffffffffffffffffffffffffffffffffffffffff16815260200190815260200160002054905081811015610b09576040517f08c379a0000000000000000000000000000000000000000000000000000000008152600401610b0090611771565b60405180910390fd5b8181036000808673ffffffffffffffffffffffffffffffffffffffff1673ffffffffffffffffffffffffffffffffffffffff16815260200190815260200160002081905550816000808573ffffffffffffffffffffffffffffffffffffffff1673ffffffffffffffffffffffffffffffffffffffff168152602001908152602001600020600082825401925050819055508273ffffffffffffffffffffffffffffffffffffffff168473ffffffffffffffffffffffffffffffffffffffff167fddf252ad1be2c89b69c2b068fc378daa952ba7f163c4a11628f55a4df523b3ef84604051610bf791906110fb565b60405180910390a3610c0a848484610f26565b50505050565b610c1861073d565b73ffffffffffffffffffffffffffffffffffffffff16610c366104dd565b73ffffffffffffffffffffffffffffffffffffffff1614610c8c576040517f08c379a0000000000000000000000000000000000000000000000000000000008152600401610c83906117dd565b60405180910390fd5b565b600073ffffffffffffffffffffffffffffffffffffffff168273ffffffffffffffffffffffffffffffffffffffff1603610cfd576040517f08c379a0000000000000000000000000000000000000000000000000000000008152600401610cf49061186f565b60405180910390fd5b610d0982600083610f21565b60008060008473ffffffffffffffffffffffffffffffffffffffff1673ffffffffffffffffffffffffffffffffffffffff16815260200190815260200160002054905081811015610d8f576040517f08c379a0000000000000000000000000000000000000000000000000000000008152600401610d8690611901565b60405180910390fd5b8181036000808573ffffffffffffffffffffffffffffffffffffffff1673ffffffffffffffffffffffffffffffffffffffff1681526020019081526020016000208190555081600260008282540392505081905550600073ffffffffffffffffffffffffffffffffffffffff168373ffffffffffffffffffffffffffffffffffffffff167fddf252ad1be2c89b69c2b068fc378daa952ba7f163c4a11628f55a4df523b3ef84604051610e4291906110fb565b60405180910390a3610e5683600084610f26565b505050565b6000600560009054906101000a900473ffffffffffffffffffffffffffffffffffffffff16905081600560006101000a81548173ffffffffffffffffffffffffffffffffffffffff021916908373ffffffffffffffffffffffffffffffffffffffff1602179055508173ffffffffffffffffffffffffffffffffffffffff168173ffffffffffffffffffffffffffffffffffffffff167f8be0079c531659141344cd1fd0a4f28419497f9722a3daafe3b4186f6b6457e060405160405180910390a35050565b505050565b505050565b600081519050919050565b600082825260208201905092915050565b60005b83811015610f65578082015181840152602081019050610f4a565b60008484015250505050565b6000601f19601f8301169050919050565b6000610f8d82610f2b565b610f978185610f36565b9350610fa7818560208601610f47565b610fb081610f71565b840191505092915050565b60006020820190508181036000830152610fd58184610f82565b905092915050565b600080fd5b600073ffffffffffffffffffffffffffffffffffffffff82169050919050565b600061100d82610fe2565b9050919050565b61101d81611002565b811461102857600080fd5b50565b60008135905061103a81611014565b92915050565b6000819050919050565b61105381611040565b811461105e57600080fd5b50565b6000813590506110708161104a565b92915050565b6000806040838503121561108d5761108c610fdd565b5b600061109b8582860161102b565b92505060206110ac85828601611061565b9150509250929050565b60008115159050919050565b6110cb816110b6565b82525050565b60006020820190506110e660008301846110c2565b92915050565b6110f581611040565b82525050565b600060208201905061111060008301846110ec565b92915050565b60008060006060848603121561112f5761112e610fdd565b5b600061113d8682870161102b565b935050602061114e8682870161102b565b925050604061115f86828701611061565b9150509250925092565b600060ff82169050919050565b61117f81611169565b82525050565b600060208201905061119a6000830184611176565b92915050565b6000602082840312156111b6576111b5610fdd565b5b60006111c484828501611061565b91505092915050565b6000602082840312156111e3576111e2610fdd565b5b60006111f18482850161102b565b91505092915050565b61120381611002565b82525050565b600060208201905061121e60008301846111fa565b92915050565b6000806040838503121561123b5761123a610fdd565b5b60006112498582860161102b565b925050602061125a8582860161102b565b9150509250929050565b7f4e487b7100000000000000000000000000000000000000000000000000000000600052602260045260246000fd5b600060028204905060018216806112ab57607f821691505b6020821081036112be576112bd611264565b5b50919050565b7f4e487b7100000000000000000000000000000000000000000000000000000000600052601160045260246000fd5b60006112fe82611040565b915061130983611040565b9250828201905080821115611321576113206112c4565b5b92915050565b7f45524332303a2064656372656173656420616c6c6f77616e63652062656c6f7760008201527f207a65726f000000000000000000000000000000000000000000000000000000602082015250565b6000611383602583610f36565b915061138e82611327565b604082019050919050565b600060208201905081810360008301526113b281611376565b9050919050565b7f4f776e61626c653a206e6577206f776e657220697320746865207a65726f206160008201527f6464726573730000000000000000000000000000000000000000000000000000602082015250565b6000611415602683610f36565b9150611420826113b9565b604082019050919050565b6000602082019050818103600083015261144481611408565b9050919050565b7f45524332303a20617070726f76652066726f6d20746865207a65726f2061646460008201527f7265737300000000000000000000000000000000000000000000000000000000602082015250565b60006114a7602483610f36565b91506114b28261144b565b604082019050919050565b600060208201905081810360008301526114d68161149a565b9050919050565b7f45524332303a20617070726f766520746f20746865207a65726f20616464726560008201527f7373000000000000000000000000000000000000000000000000000000000000602082015250565b6000611539602283610f36565b9150611544826114dd565b604082019050919050565b600060208201905081810360008301526115688161152c565b9050919050565b7f45524332303a20696e73756666696369656e7420616c6c6f77616e6365000000600082015250565b60006115a5601d83610f36565b91506115b08261156f565b602082019050919050565b600060208201905081810360008301526115d481611598565b9050919050565b7f45524332303a207472616e736665722066726f6d20746865207a65726f20616460008201527f6472657373000000000000000000000000000000000000000000000000000000602082015250565b6000611637602583610f36565b9150611642826115db565b604082019050919050565b600060208201905081810360008301526116668161162a565b9050919050565b7f45524332303a207472616e7366657220746f20746865207a65726f206164647260008201527f6573730000000000000000000000000000000000000000000000000000000000602082015250565b60006116c9602383610f36565b91506116d48261166d565b604082019050919050565b600060208201905081810360008301526116f8816116bc565b9050919050565b7f45524332303a207472616e7366657220616d6f756e742065786365656473206260008201527f616c616e63650000000000000000000000000000000000000000000000000000602082015250565b600061175b602683610f36565b9150611766826116ff565b604082019050919050565b6000602082019050818103600083015261178a8161174e565b9050919050565b7f4f776e61626c653a2063616c6c6572206973206e6f7420746865206f776e6572600082015250565b60006117c7602083610f36565b91506117d282611791565b602082019050919050565b600060208201905081810360008301526117f6816117ba565b9050919050565b7f45524332303a206275726e2066726f6d20746865207a65726f2061646472657360008201527f7300000000000000000000000000000000000000000000000000000000000000602082015250565b6000611859602183610f36565b9150611864826117fd565b604082019050919050565b600060208201905081810360008301526118888161184c565b9050919050565b7f45524332303a206275726e20616d6f756e7420657863656564732062616c616e60008201527f6365000000000000000000000000000000000000000000000000000000000000602082015250565b60006118eb602283610f36565b91506118f68261188f565b604082019050919050565b6000602082019050818103600083015261191a816118de565b905091905056fea2646970667358221220c9eb8d7196df44a7df2d96780a585cd638013e1bf36ebec44c03c79e8ac8818b64736f6c63430008130033",
  "immutableReferences": {},
  "source": "// SPDX-License-Identifier: UNLICENSED\n\npragma solidity 0.8.19;\n\nimport \"@openzeppelin/contracts/token/ERC20/ERC20.sol\";\nimport \"@openzeppelin/contracts/access/Ownable.sol\";\n\ncontract Hootenani is ERC20, Ownable {\n\n    constructor(address creator) ERC20(\"Hootenani\", \"Hoot\") {\n        _mint(creator, 1500000000 * 10 ** decimals());\n    }\n    \n    function decimals() public view virtual override returns (uint8) {\n        return 8;\n    }\n\n    function burn(uint256 amount) external onlyOwner returns(bool) {\n        _burn(msg.sender, amount);\n        return true;\n    }\n\n}",
  "sourcePath": "/Users/apple/Workspace/validusTransfer/contracts/loyaltyPoints.sol",
  "compiler": {
    "name": "solc",
    "version": "0.8.19+commit.7dd6d404.Emscripten.clang"
  },
  "schemaVersion": "3.4.13",
  "updatedAt": "2023-06-26T05:22:16.749Z",
  "devdoc": {
    "events": {
      "Approval(address,address,uint256)": {
        "details": "Emitted when the allowance of a `spender` for an `owner` is set by a call to {approve}. `value` is the new allowance."
      },
      "Transfer(address,address,uint256)": {
        "details": "Emitted when `value` tokens are moved from one account (`from`) to another (`to`). Note that `value` may be zero."
      }
    },
    "kind": "dev",
    "methods": {
      "allowance(address,address)": {
        "details": "See {IERC20-allowance}."
      },
      "approve(address,uint256)": {
        "details": "See {IERC20-approve}. NOTE: If `amount` is the maximum `uint256`, the allowance is not updated on `transferFrom`. This is semantically equivalent to an infinite approval. Requirements: - `spender` cannot be the zero address."
      },
      "balanceOf(address)": {
        "details": "See {IERC20-balanceOf}."
      },
      "decimals()": {
        "details": "Returns the number of decimals used to get its user representation. For example, if `decimals` equals `2`, a balance of `505` tokens should be displayed to a user as `5.05` (`505 / 10 ** 2`). Tokens usually opt for a value of 18, imitating the relationship between Ether and Wei. This is the default value returned by this function, unless it's overridden. NOTE: This information is only used for _display_ purposes: it in no way affects any of the arithmetic of the contract, including {IERC20-balanceOf} and {IERC20-transfer}."
      },
      "decreaseAllowance(address,uint256)": {
        "details": "Atomically decreases the allowance granted to `spender` by the caller. This is an alternative to {approve} that can be used as a mitigation for problems described in {IERC20-approve}. Emits an {Approval} event indicating the updated allowance. Requirements: - `spender` cannot be the zero address. - `spender` must have allowance for the caller of at least `subtractedValue`."
      },
      "increaseAllowance(address,uint256)": {
        "details": "Atomically increases the allowance granted to `spender` by the caller. This is an alternative to {approve} that can be used as a mitigation for problems described in {IERC20-approve}. Emits an {Approval} event indicating the updated allowance. Requirements: - `spender` cannot be the zero address."
      },
      "name()": {
        "details": "Returns the name of the token."
      },
      "owner()": {
        "details": "Returns the address of the current owner."
      },
      "renounceOwnership()": {
        "details": "Leaves the contract without owner. It will not be possible to call `onlyOwner` functions. Can only be called by the current owner. NOTE: Renouncing ownership will leave the contract without an owner, thereby disabling any functionality that is only available to the owner."
      },
      "symbol()": {
        "details": "Returns the symbol of the token, usually a shorter version of the name."
      },
      "totalSupply()": {
        "details": "See {IERC20-totalSupply}."
      },
      "transfer(address,uint256)": {
        "details": "See {IERC20-transfer}. Requirements: - `to` cannot be the zero address. - the caller must have a balance of at least `amount`."
      },
      "transferFrom(address,address,uint256)": {
        "details": "See {IERC20-transferFrom}. Emits an {Approval} event indicating the updated allowance. This is not required by the EIP. See the note at the beginning of {ERC20}. NOTE: Does not update the allowance if the current allowance is the maximum `uint256`. Requirements: - `from` and `to` cannot be the zero address. - `from` must have a balance of at least `amount`. - the caller must have allowance for ``from``'s tokens of at least `amount`."
      },
      "transferOwnership(address)": {
        "details": "Transfers ownership of the contract to a new account (`newOwner`). Can only be called by the current owner."
      }
    },
    "version": 1
  },
  "userdoc": {
    "kind": "user",
    "methods": {},
    "version": 1
  }
}