{
  "contractName": "NFTGallery",
  "abi": [
    {
      "inputs": [
        {
          "internalType": "string",
          "name": "name",
          "type": "string"
        },
        {
          "internalType": "string",
          "name": "symbol",
          "type": "string"
        },
        {
          "internalType": "string",
          "name": "_baseTokenURI",
          "type": "string"
        },
        {
          "internalType": "address",
          "name": "_LPAddress",
          "type": "address"
        }
      ],
      "stateMutability": "nonpayable",
      "type": "constructor"
    },
    {
      "anonymous": false,
      "inputs": [
        {
          "indexed": true,
          "internalType": "address",
          "name": "owner",
          "type": "address"
        },
        {
          "indexed": true,
          "internalType": "address",
          "name": "approved",
          "type": "address"
        },
        {
          "indexed": true,
          "internalType": "uint256",
          "name": "tokenId",
          "type": "uint256"
        }
      ],
      "name": "Approval",
      "type": "event"
    },
    {
      "anonymous": false,
      "inputs": [
        {
          "indexed": true,
          "internalType": "address",
          "name": "owner",
          "type": "address"
        },
        {
          "indexed": true,
          "internalType": "address",
          "name": "operator",
          "type": "address"
        },
        {
          "indexed": false,
          "internalType": "bool",
          "name": "approved",
          "type": "bool"
        }
      ],
      "name": "ApprovalForAll",
      "type": "event"
    },
    {
      "anonymous": false,
      "inputs": [
        {
          "indexed": false,
          "internalType": "uint256",
          "name": "_fromTokenId",
          "type": "uint256"
        },
        {
          "indexed": false,
          "internalType": "uint256",
          "name": "_toTokenId",
          "type": "uint256"
        }
      ],
      "name": "BatchMetadataUpdate",
      "type": "event"
    },
    {
      "anonymous": false,
      "inputs": [
        {
          "indexed": false,
          "internalType": "uint256",
          "name": "_tokenId",
          "type": "uint256"
        }
      ],
      "name": "MetadataUpdate",
      "type": "event"
    },
    {
      "anonymous": false,
      "inputs": [
        {
          "indexed": true,
          "internalType": "address",
          "name": "previousOwner",
          "type": "address"
        },
        {
          "indexed": true,
          "internalType": "address",
          "name": "newOwner",
          "type": "address"
        }
      ],
      "name": "OwnershipTransferred",
      "type": "event"
    },
    {
      "anonymous": false,
      "inputs": [
        {
          "indexed": true,
          "internalType": "bytes32",
          "name": "role",
          "type": "bytes32"
        },
        {
          "indexed": true,
          "internalType": "bytes32",
          "name": "previousAdminRole",
          "type": "bytes32"
        },
        {
          "indexed": true,
          "internalType": "bytes32",
          "name": "newAdminRole",
          "type": "bytes32"
        }
      ],
      "name": "RoleAdminChanged",
      "type": "event"
    },
    {
      "anonymous": false,
      "inputs": [
        {
          "indexed": true,
          "internalType": "bytes32",
          "name": "role",
          "type": "bytes32"
        },
        {
          "indexed": true,
          "internalType": "address",
          "name": "account",
          "type": "address"
        },
        {
          "indexed": true,
          "internalType": "address",
          "name": "sender",
          "type": "address"
        }
      ],
      "name": "RoleGranted",
      "type": "event"
    },
    {
      "anonymous": false,
      "inputs": [
        {
          "indexed": true,
          "internalType": "bytes32",
          "name": "role",
          "type": "bytes32"
        },
        {
          "indexed": true,
          "internalType": "address",
          "name": "account",
          "type": "address"
        },
        {
          "indexed": true,
          "internalType": "address",
          "name": "sender",
          "type": "address"
        }
      ],
      "name": "RoleRevoked",
      "type": "event"
    },
    {
      "anonymous": false,
      "inputs": [
        {
          "indexed": true,
          "internalType": "address",
          "name": "from",
          "type": "address"
        },
        {
          "indexed": true,
          "internalType": "address",
          "name": "to",
          "type": "address"
        },
        {
          "indexed": true,
          "internalType": "uint256",
          "name": "tokenId",
          "type": "uint256"
        }
      ],
      "name": "Transfer",
      "type": "event"
    },
    {
      "inputs": [],
      "name": "ADMIN_ROLE",
      "outputs": [
        {
          "internalType": "bytes32",
          "name": "",
          "type": "bytes32"
        }
      ],
      "stateMutability": "view",
      "type": "function",
      "constant": true
    },
    {
      "inputs": [],
      "name": "DEFAULT_ADMIN_ROLE",
      "outputs": [
        {
          "internalType": "bytes32",
          "name": "",
          "type": "bytes32"
        }
      ],
      "stateMutability": "view",
      "type": "function",
      "constant": true
    },
    {
      "inputs": [],
      "name": "LPAddress",
      "outputs": [
        {
          "internalType": "address",
          "name": "",
          "type": "address"
        }
      ],
      "stateMutability": "view",
      "type": "function",
      "constant": true
    },
    {
      "inputs": [
        {
          "internalType": "address",
          "name": "to",
          "type": "address"
        },
        {
          "internalType": "uint256",
          "name": "tokenId",
          "type": "uint256"
        }
      ],
      "name": "approve",
      "outputs": [],
      "stateMutability": "nonpayable",
      "type": "function"
    },
    {
      "inputs": [
        {
          "internalType": "address",
          "name": "owner",
          "type": "address"
        }
      ],
      "name": "balanceOf",
      "outputs": [
        {
          "internalType": "uint256",
          "name": "",
          "type": "uint256"
        }
      ],
      "stateMutability": "view",
      "type": "function",
      "constant": true
    },
    {
      "inputs": [
        {
          "internalType": "uint256",
          "name": "tokenId",
          "type": "uint256"
        }
      ],
      "name": "burn",
      "outputs": [],
      "stateMutability": "nonpayable",
      "type": "function"
    },
    {
      "inputs": [
        {
          "internalType": "uint256",
          "name": "tokenId",
          "type": "uint256"
        }
      ],
      "name": "getApproved",
      "outputs": [
        {
          "internalType": "address",
          "name": "",
          "type": "address"
        }
      ],
      "stateMutability": "view",
      "type": "function",
      "constant": true
    },
    {
      "inputs": [
        {
          "internalType": "bytes32",
          "name": "role",
          "type": "bytes32"
        }
      ],
      "name": "getRoleAdmin",
      "outputs": [
        {
          "internalType": "bytes32",
          "name": "",
          "type": "bytes32"
        }
      ],
      "stateMutability": "view",
      "type": "function",
      "constant": true
    },
    {
      "inputs": [
        {
          "internalType": "bytes32",
          "name": "role",
          "type": "bytes32"
        },
        {
          "internalType": "address",
          "name": "account",
          "type": "address"
        }
      ],
      "name": "grantRole",
      "outputs": [],
      "stateMutability": "nonpayable",
      "type": "function"
    },
    {
      "inputs": [
        {
          "internalType": "bytes32",
          "name": "role",
          "type": "bytes32"
        },
        {
          "internalType": "address",
          "name": "account",
          "type": "address"
        }
      ],
      "name": "hasRole",
      "outputs": [
        {
          "internalType": "bool",
          "name": "",
          "type": "bool"
        }
      ],
      "stateMutability": "view",
      "type": "function",
      "constant": true
    },
    {
      "inputs": [],
      "name": "name",
      "outputs": [
        {
          "internalType": "string",
          "name": "",
          "type": "string"
        }
      ],
      "stateMutability": "view",
      "type": "function",
      "constant": true
    },
    {
      "inputs": [],
      "name": "owner",
      "outputs": [
        {
          "internalType": "address",
          "name": "",
          "type": "address"
        }
      ],
      "stateMutability": "view",
      "type": "function",
      "constant": true
    },
    {
      "inputs": [
        {
          "internalType": "uint256",
          "name": "tokenId",
          "type": "uint256"
        }
      ],
      "name": "ownerOf",
      "outputs": [
        {
          "internalType": "address",
          "name": "",
          "type": "address"
        }
      ],
      "stateMutability": "view",
      "type": "function",
      "constant": true
    },
    {
      "inputs": [
        {
          "internalType": "bytes32",
          "name": "role",
          "type": "bytes32"
        },
        {
          "internalType": "address",
          "name": "account",
          "type": "address"
        }
      ],
      "name": "renounceRole",
      "outputs": [],
      "stateMutability": "nonpayable",
      "type": "function"
    },
    {
      "inputs": [
        {
          "internalType": "bytes32",
          "name": "role",
          "type": "bytes32"
        },
        {
          "internalType": "address",
          "name": "account",
          "type": "address"
        }
      ],
      "name": "revokeRole",
      "outputs": [],
      "stateMutability": "nonpayable",
      "type": "function"
    },
    {
      "inputs": [
        {
          "internalType": "uint256",
          "name": "tokenId",
          "type": "uint256"
        },
        {
          "internalType": "uint256",
          "name": "salePrice",
          "type": "uint256"
        }
      ],
      "name": "royaltyInfo",
      "outputs": [
        {
          "internalType": "address",
          "name": "",
          "type": "address"
        },
        {
          "internalType": "uint256",
          "name": "",
          "type": "uint256"
        }
      ],
      "stateMutability": "view",
      "type": "function",
      "constant": true
    },
    {
      "inputs": [
        {
          "internalType": "address",
          "name": "from",
          "type": "address"
        },
        {
          "internalType": "address",
          "name": "to",
          "type": "address"
        },
        {
          "internalType": "uint256",
          "name": "tokenId",
          "type": "uint256"
        }
      ],
      "name": "safeTransferFrom",
      "outputs": [],
      "stateMutability": "nonpayable",
      "type": "function"
    },
    {
      "inputs": [
        {
          "internalType": "address",
          "name": "from",
          "type": "address"
        },
        {
          "internalType": "address",
          "name": "to",
          "type": "address"
        },
        {
          "internalType": "uint256",
          "name": "tokenId",
          "type": "uint256"
        },
        {
          "internalType": "bytes",
          "name": "data",
          "type": "bytes"
        }
      ],
      "name": "safeTransferFrom",
      "outputs": [],
      "stateMutability": "nonpayable",
      "type": "function"
    },
    {
      "inputs": [
        {
          "internalType": "address",
          "name": "operator",
          "type": "address"
        },
        {
          "internalType": "bool",
          "name": "approved",
          "type": "bool"
        }
      ],
      "name": "setApprovalForAll",
      "outputs": [],
      "stateMutability": "nonpayable",
      "type": "function"
    },
    {
      "inputs": [],
      "name": "symbol",
      "outputs": [
        {
          "internalType": "string",
          "name": "",
          "type": "string"
        }
      ],
      "stateMutability": "view",
      "type": "function",
      "constant": true
    },
    {
      "inputs": [
        {
          "internalType": "uint256",
          "name": "index",
          "type": "uint256"
        }
      ],
      "name": "tokenByIndex",
      "outputs": [
        {
          "internalType": "uint256",
          "name": "",
          "type": "uint256"
        }
      ],
      "stateMutability": "view",
      "type": "function",
      "constant": true
    },
    {
      "inputs": [
        {
          "internalType": "address",
          "name": "owner",
          "type": "address"
        },
        {
          "internalType": "uint256",
          "name": "index",
          "type": "uint256"
        }
      ],
      "name": "tokenOfOwnerByIndex",
      "outputs": [
        {
          "internalType": "uint256",
          "name": "",
          "type": "uint256"
        }
      ],
      "stateMutability": "view",
      "type": "function",
      "constant": true
    },
    {
      "inputs": [],
      "name": "totalSupply",
      "outputs": [
        {
          "internalType": "uint256",
          "name": "",
          "type": "uint256"
        }
      ],
      "stateMutability": "view",
      "type": "function",
      "constant": true
    },
    {
      "inputs": [
        {
          "internalType": "address",
          "name": "from",
          "type": "address"
        },
        {
          "internalType": "address",
          "name": "to",
          "type": "address"
        },
        {
          "internalType": "uint256",
          "name": "tokenId",
          "type": "uint256"
        }
      ],
      "name": "transferFrom",
      "outputs": [],
      "stateMutability": "nonpayable",
      "type": "function"
    },
    {
      "inputs": [
        {
          "internalType": "address",
          "name": "newOwner",
          "type": "address"
        }
      ],
      "name": "transferOwnership",
      "outputs": [
        {
          "internalType": "bool",
          "name": "",
          "type": "bool"
        }
      ],
      "stateMutability": "nonpayable",
      "type": "function"
    },
    {
      "inputs": [],
      "name": "baseURI",
      "outputs": [
        {
          "internalType": "string",
          "name": "",
          "type": "string"
        }
      ],
      "stateMutability": "view",
      "type": "function",
      "constant": true
    },
    {
      "inputs": [
        {
          "internalType": "string",
          "name": "_baseTokenURI",
          "type": "string"
        }
      ],
      "name": "setBaseURI",
      "outputs": [],
      "stateMutability": "nonpayable",
      "type": "function"
    },
    {
      "inputs": [
        {
          "internalType": "string",
          "name": "_tokenURI",
          "type": "string"
        },
        {
          "internalType": "uint256",
          "name": "price",
          "type": "uint256"
        }
      ],
      "name": "mint",
      "outputs": [
        {
          "internalType": "uint256",
          "name": "_tokenId",
          "type": "uint256"
        }
      ],
      "stateMutability": "nonpayable",
      "type": "function"
    },
    {
      "inputs": [
        {
          "internalType": "uint256",
          "name": "tokenId",
          "type": "uint256"
        },
        {
          "internalType": "address",
          "name": "tokenAddress",
          "type": "address"
        }
      ],
      "name": "redeem",
      "outputs": [],
      "stateMutability": "nonpayable",
      "type": "function"
    },
    {
      "inputs": [
        {
          "internalType": "uint256",
          "name": "tokenId",
          "type": "uint256"
        }
      ],
      "name": "tokenURI",
      "outputs": [
        {
          "internalType": "string",
          "name": "",
          "type": "string"
        }
      ],
      "stateMutability": "view",
      "type": "function",
      "constant": true
    },
    {
      "inputs": [
        {
          "internalType": "uint256",
          "name": "tokenId",
          "type": "uint256"
        }
      ],
      "name": "getPriceById",
      "outputs": [
        {
          "internalType": "uint256",
          "name": "",
          "type": "uint256"
        }
      ],
      "stateMutability": "view",
      "type": "function",
      "constant": true
    },
    {
      "inputs": [
        {
          "internalType": "address",
          "name": "_owner",
          "type": "address"
        },
        {
          "internalType": "address",
          "name": "operator",
          "type": "address"
        }
      ],
      "name": "isApprovedForAll",
      "outputs": [
        {
          "internalType": "bool",
          "name": "",
          "type": "bool"
        }
      ],
      "stateMutability": "view",
      "type": "function",
      "constant": true
    },
    {
      "inputs": [
        {
          "internalType": "bytes4",
          "name": "interfaceId",
          "type": "bytes4"
        }
      ],
      "name": "supportsInterface",
      "outputs": [
        {
          "internalType": "bool",
          "name": "",
          "type": "bool"
        }
      ],
      "stateMutability": "view",
      "type": "function",
      "constant": true
    }
  ],
  "bytecode": "0x60806040523480156200001157600080fd5b5060405162005740380380620057408339818101604052810190620000379190620004d9565b838381600090816200004a9190620007f3565b5080600190816200005c9190620007f3565b50505081600f9081620000709190620007f3565b50620000816200015060201b60201c565b601060006101000a81548173ffffffffffffffffffffffffffffffffffffffff021916908373ffffffffffffffffffffffffffffffffffffffff16021790555080601160006101000a81548173ffffffffffffffffffffffffffffffffffffffff021916908373ffffffffffffffffffffffffffffffffffffffff160217905550620001347f41444d494e5f524f4c4500000000000000000000000000000000000000000000336200015860201b60201c565b62000146600e6200016e60201b60201c565b50505050620008da565b600033905090565b6200016a82826200018460201b60201c565b5050565b6001816000016000828254019250508190555050565b6200019682826200027660201b60201c565b62000272576001600b600084815260200190815260200160002060000160008373ffffffffffffffffffffffffffffffffffffffff1673ffffffffffffffffffffffffffffffffffffffff16815260200190815260200160002060006101000a81548160ff021916908315150217905550620002176200015060201b60201c565b73ffffffffffffffffffffffffffffffffffffffff168173ffffffffffffffffffffffffffffffffffffffff16837f2f8788117e7eff1d82e926ec794901d17c78024a50270940304540a733656f0d60405160405180910390a45b5050565b6000600b600084815260200190815260200160002060000160008373ffffffffffffffffffffffffffffffffffffffff1673ffffffffffffffffffffffffffffffffffffffff16815260200190815260200160002060009054906101000a900460ff16905092915050565b6000604051905090565b600080fd5b600080fd5b600080fd5b600080fd5b6000601f19601f8301169050919050565b7f4e487b7100000000000000000000000000000000000000000000000000000000600052604160045260246000fd5b6200034a82620002ff565b810181811067ffffffffffffffff821117156200036c576200036b62000310565b5b80604052505050565b600062000381620002e1565b90506200038f82826200033f565b919050565b600067ffffffffffffffff821115620003b257620003b162000310565b5b620003bd82620002ff565b9050602081019050919050565b60005b83811015620003ea578082015181840152602081019050620003cd565b60008484015250505050565b60006200040d620004078462000394565b62000375565b9050828152602081018484840111156200042c576200042b620002fa565b5b62000439848285620003ca565b509392505050565b600082601f830112620004595762000458620002f5565b5b81516200046b848260208601620003f6565b91505092915050565b600073ffffffffffffffffffffffffffffffffffffffff82169050919050565b6000620004a18262000474565b9050919050565b620004b38162000494565b8114620004bf57600080fd5b50565b600081519050620004d381620004a8565b92915050565b60008060008060808587031215620004f657620004f5620002eb565b5b600085015167ffffffffffffffff811115620005175762000516620002f0565b5b620005258782880162000441565b945050602085015167ffffffffffffffff811115620005495762000548620002f0565b5b620005578782880162000441565b935050604085015167ffffffffffffffff8111156200057b576200057a620002f0565b5b620005898782880162000441565b92505060606200059c87828801620004c2565b91505092959194509250565b600081519050919050565b7f4e487b7100000000000000000000000000000000000000000000000000000000600052602260045260246000fd5b60006002820490506001821680620005fb57607f821691505b602082108103620006115762000610620005b3565b5b50919050565b60008190508160005260206000209050919050565b60006020601f8301049050919050565b600082821b905092915050565b6000600883026200067b7fffffffffffffffffffffffffffffffffffffffffffffffffffffffffffffffff826200063c565b6200068786836200063c565b95508019841693508086168417925050509392505050565b6000819050919050565b6000819050919050565b6000620006d4620006ce620006c8846200069f565b620006a9565b6200069f565b9050919050565b6000819050919050565b620006f083620006b3565b62000708620006ff82620006db565b84845462000649565b825550505050565b600090565b6200071f62000710565b6200072c818484620006e5565b505050565b5b8181101562000754576200074860008262000715565b60018101905062000732565b5050565b601f821115620007a3576200076d8162000617565b62000778846200062c565b8101602085101562000788578190505b620007a062000797856200062c565b83018262000731565b50505b505050565b600082821c905092915050565b6000620007c860001984600802620007a8565b1980831691505092915050565b6000620007e38383620007b5565b9150826002028217905092915050565b620007fe82620005a8565b67ffffffffffffffff8111156200081a576200081962000310565b5b620008268254620005e2565b6200083382828562000758565b600060209050601f8311600181146200086b576000841562000856578287015190505b620008628582620007d5565b865550620008d2565b601f1984166200087b8662000617565b60005b82811015620008a5578489015182556001820191506020850194506020810190506200087e565b86831015620008c55784890151620008c1601f891682620007b5565b8355505b6001600288020188555050505b505050505050565b614e5680620008ea6000396000f3fe608060405234801561001057600080fd5b50600436106101fb5760003560e01c806355f804b31161011a57806395d89b41116100ad578063b9256b1b1161007c578063b9256b1b146105e9578063c87b56dd14610619578063d547741f14610649578063e985e9c514610665578063f2fde38b14610695576101fb565b806395d89b4114610575578063a217fddf14610593578063a22cb465146105b1578063b88d4fde146105cd576101fb565b806375b238fc116100e957806375b238fc146104ed5780637bde82f21461050b5780638da5cb5b1461052757806391d1485414610545576101fb565b806355f804b3146104535780636352211e1461046f5780636c0360eb1461049f57806370a08231146104bd576101fb565b8063248a9ca31161019257806336568abe1161016157806336568abe146103cf57806342842e0e146103eb57806342966c68146104075780634f6ccce714610423576101fb565b8063248a9ca3146103225780632a55205a146103525780632f2ff15d146103835780632f745c591461039f576101fb565b8063095ea7b3116101ce578063095ea7b3146102ae578063120f2eda146102ca57806318160ddd146102e857806323b872dd14610306576101fb565b806301ffc9a714610200578063056b01ce1461023057806306fdde0314610260578063081812fc1461027e575b600080fd5b61021a600480360381019061021591906134ed565b6106c5565b6040516102279190613535565b60405180910390f35b61024a600480360381019061024591906136cc565b6106d7565b6040516102579190613737565b60405180910390f35b61026861076e565b60405161027591906137d1565b60405180910390f35b610298600480360381019061029391906137f3565b610800565b6040516102a59190613861565b60405180910390f35b6102c860048036038101906102c391906138a8565b610846565b005b6102d261095d565b6040516102df9190613861565b60405180910390f35b6102f0610983565b6040516102fd9190613737565b60405180910390f35b610320600480360381019061031b91906138e8565b610990565b005b61033c60048036038101906103379190613971565b6109f0565b60405161034991906139ad565b60405180910390f35b61036c600480360381019061036791906139c8565b610a10565b60405161037a929190613a08565b60405180910390f35b61039d60048036038101906103989190613a31565b610bfa565b005b6103b960048036038101906103b491906138a8565b610c1b565b6040516103c69190613737565b60405180910390f35b6103e960048036038101906103e49190613a31565b610cc0565b005b610405600480360381019061040091906138e8565b610d43565b005b610421600480360381019061041c91906137f3565b610d63565b005b61043d600480360381019061043891906137f3565b610dbf565b60405161044a9190613737565b60405180910390f35b61046d60048036038101906104689190613a71565b610e30565b005b610489600480360381019061048491906137f3565b610e6e565b6040516104969190613861565b60405180910390f35b6104a7610ef4565b6040516104b491906137d1565b60405180910390f35b6104d760048036038101906104d29190613aba565b610f03565b6040516104e49190613737565b60405180910390f35b6104f5610fba565b60405161050291906139ad565b60405180910390f35b61052560048036038101906105209190613ae7565b610fde565b005b61052f611190565b60405161053c9190613861565b60405180910390f35b61055f600480360381019061055a9190613a31565b6111b6565b60405161056c9190613535565b60405180910390f35b61057d611221565b60405161058a91906137d1565b60405180910390f35b61059b6112b3565b6040516105a891906139ad565b60405180910390f35b6105cb60048036038101906105c69190613b53565b6112ba565b005b6105e760048036038101906105e29190613c34565b6112d0565b005b61060360048036038101906105fe91906137f3565b611332565b6040516106109190613737565b60405180910390f35b610633600480360381019061062e91906137f3565b61134f565b60405161064091906137d1565b60405180910390f35b610663600480360381019061065e9190613a31565b611361565b005b61067f600480360381019061067a9190613cb7565b611382565b60405161068c9190613535565b60405180910390f35b6106af60048036038101906106aa9190613aba565b6113f5565b6040516106bc9190613535565b60405180910390f35b60006106d0826115cd565b9050919050565b60007f41444d494e5f524f4c450000000000000000000000000000000000000000000061070381611647565b61070d600e61165b565b915061073b601060009054906101000a900473ffffffffffffffffffffffffffffffffffffffff1683611669565b6107458285611886565b826012600084815260200190815260200160002081905550610767600e61192a565b5092915050565b60606000805461077d90613d26565b80601f01602080910402602001604051908101604052809291908181526020018280546107a990613d26565b80156107f65780601f106107cb576101008083540402835291602001916107f6565b820191906000526020600020905b8154815290600101906020018083116107d957829003601f168201915b5050505050905090565b600061080b82611940565b6004600083815260200190815260200160002060009054906101000a900473ffffffffffffffffffffffffffffffffffffffff169050919050565b600061085182610e6e565b90508073ffffffffffffffffffffffffffffffffffffffff168373ffffffffffffffffffffffffffffffffffffffff16036108c1576040517f08c379a00000000000000000000000000000000000000000000000000000000081526004016108b890613dc9565b60405180910390fd5b8073ffffffffffffffffffffffffffffffffffffffff166108e061198b565b73ffffffffffffffffffffffffffffffffffffffff16148061090f575061090e8161090961198b565b611382565b5b61094e576040517f08c379a000000000000000000000000000000000000000000000000000000000815260040161094590613e5b565b60405180910390fd5b6109588383611993565b505050565b601160009054906101000a900473ffffffffffffffffffffffffffffffffffffffff1681565b6000600880549050905090565b6109a161099b61198b565b82611a4c565b6109e0576040517f08c379a00000000000000000000000000000000000000000000000000000000081526004016109d790613eed565b60405180910390fd5b6109eb838383611ae1565b505050565b6000600b6000838152602001908152602001600020600101549050919050565b6000806000600d60008681526020019081526020016000206040518060400160405290816000820160009054906101000a900473ffffffffffffffffffffffffffffffffffffffff1673ffffffffffffffffffffffffffffffffffffffff1673ffffffffffffffffffffffffffffffffffffffff1681526020016000820160149054906101000a90046bffffffffffffffffffffffff166bffffffffffffffffffffffff166bffffffffffffffffffffffff16815250509050600073ffffffffffffffffffffffffffffffffffffffff16816000015173ffffffffffffffffffffffffffffffffffffffff1603610ba557600c6040518060400160405290816000820160009054906101000a900473ffffffffffffffffffffffffffffffffffffffff1673ffffffffffffffffffffffffffffffffffffffff1673ffffffffffffffffffffffffffffffffffffffff1681526020016000820160149054906101000a90046bffffffffffffffffffffffff166bffffffffffffffffffffffff166bffffffffffffffffffffffff168152505090505b6000610baf611dda565b6bffffffffffffffffffffffff1682602001516bffffffffffffffffffffffff1686610bdb9190613f3c565b610be59190613fad565b90508160000151819350935050509250929050565b610c03826109f0565b610c0c81611647565b610c168383611de4565b505050565b6000610c2683610f03565b8210610c67576040517f08c379a0000000000000000000000000000000000000000000000000000000008152600401610c5e90614050565b60405180910390fd5b600660008473ffffffffffffffffffffffffffffffffffffffff1673ffffffffffffffffffffffffffffffffffffffff168152602001908152602001600020600083815260200190815260200160002054905092915050565b610cc861198b565b73ffffffffffffffffffffffffffffffffffffffff168173ffffffffffffffffffffffffffffffffffffffff1614610d35576040517f08c379a0000000000000000000000000000000000000000000000000000000008152600401610d2c906140e2565b60405180910390fd5b610d3f8282611ec5565b5050565b610d5e838383604051806020016040528060008152506112d0565b505050565b610d74610d6e61198b565b82611a4c565b610db3576040517f08c379a0000000000000000000000000000000000000000000000000000000008152600401610daa90613eed565b60405180910390fd5b610dbc81611fa7565b50565b6000610dc9610983565b8210610e0a576040517f08c379a0000000000000000000000000000000000000000000000000000000008152600401610e0190614174565b60405180910390fd5b60088281548110610e1e57610e1d614194565b5b90600052602060002001549050919050565b7f41444d494e5f524f4c4500000000000000000000000000000000000000000000610e5a81611647565b81600f9081610e69919061436f565b505050565b600080610e7a83611fb3565b9050600073ffffffffffffffffffffffffffffffffffffffff168173ffffffffffffffffffffffffffffffffffffffff1603610eeb576040517f08c379a0000000000000000000000000000000000000000000000000000000008152600401610ee29061448d565b60405180910390fd5b80915050919050565b6060610efe611ff0565b905090565b60008073ffffffffffffffffffffffffffffffffffffffff168273ffffffffffffffffffffffffffffffffffffffff1603610f73576040517f08c379a0000000000000000000000000000000000000000000000000000000008152600401610f6a9061451f565b60405180910390fd5b600360008373ffffffffffffffffffffffffffffffffffffffff1673ffffffffffffffffffffffffffffffffffffffff168152602001908152602001600020549050919050565b7fa49807205ce4d355092ef5a8a18f56e8913cf4a201fbe287825b095693c2177581565b6012600083815260200190815260200160002054601160009054906101000a900473ffffffffffffffffffffffffffffffffffffffff1673ffffffffffffffffffffffffffffffffffffffff166370a08231336040518263ffffffff1660e01b815260040161104d9190613861565b602060405180830381865afa15801561106a573d6000803e3d6000fd5b505050506040513d601f19601f8201168201806040525081019061108e9190614554565b10156110cf576040517f08c379a00000000000000000000000000000000000000000000000000000000081526004016110c6906145cd565b60405180910390fd5b8073ffffffffffffffffffffffffffffffffffffffff166342966c6860126000858152602001908152602001600020546040518263ffffffff1660e01b815260040161111b9190613737565b6020604051808303816000875af115801561113a573d6000803e3d6000fd5b505050506040513d601f19601f8201168201806040525081019061115e9190614602565b5061118c601060009054906101000a900473ffffffffffffffffffffffffffffffffffffffff163384610d43565b5050565b601060009054906101000a900473ffffffffffffffffffffffffffffffffffffffff1681565b6000600b600084815260200190815260200160002060000160008373ffffffffffffffffffffffffffffffffffffffff1673ffffffffffffffffffffffffffffffffffffffff16815260200190815260200160002060009054906101000a900460ff16905092915050565b60606001805461123090613d26565b80601f016020809104026020016040519081016040528092919081815260200182805461125c90613d26565b80156112a95780601f1061127e576101008083540402835291602001916112a9565b820191906000526020600020905b81548152906001019060200180831161128c57829003601f168201915b5050505050905090565b6000801b81565b6112cc6112c561198b565b8383612082565b5050565b6112e16112db61198b565b83611a4c565b611320576040517f08c379a000000000000000000000000000000000000000000000000000000000815260040161131790613eed565b60405180910390fd5b61132c848484846121ee565b50505050565b600060126000838152602001908152602001600020549050919050565b606061135a8261224a565b9050919050565b61136a826109f0565b61137381611647565b61137d8383611ec5565b505050565b6000601060009054906101000a900473ffffffffffffffffffffffffffffffffffffffff1673ffffffffffffffffffffffffffffffffffffffff168373ffffffffffffffffffffffffffffffffffffffff16036113e257600190506113ef565b6113ec838361235c565b90505b92915050565b60007f41444d494e5f524f4c450000000000000000000000000000000000000000000061142181611647565b600073ffffffffffffffffffffffffffffffffffffffff168373ffffffffffffffffffffffffffffffffffffffff1603611490576040517f08c379a0000000000000000000000000000000000000000000000000000000008152600401611487906146a1565b60405180910390fd5b6114dc7f41444d494e5f524f4c4500000000000000000000000000000000000000000000601060009054906101000a900473ffffffffffffffffffffffffffffffffffffffff16611ec5565b8273ffffffffffffffffffffffffffffffffffffffff16601060009054906101000a900473ffffffffffffffffffffffffffffffffffffffff1673ffffffffffffffffffffffffffffffffffffffff167f8be0079c531659141344cd1fd0a4f28419497f9722a3daafe3b4186f6b6457e060405160405180910390a382601060006101000a81548173ffffffffffffffffffffffffffffffffffffffff021916908373ffffffffffffffffffffffffffffffffffffffff1602179055506115c37f41444d494e5f524f4c4500000000000000000000000000000000000000000000846123f0565b6001915050919050565b60007f2a55205a000000000000000000000000000000000000000000000000000000007bffffffffffffffffffffffffffffffffffffffffffffffffffffffff1916827bffffffffffffffffffffffffffffffffffffffffffffffffffffffff19161480611640575061163f826123fe565b5b9050919050565b6116588161165361198b565b612478565b50565b600081600001549050919050565b600073ffffffffffffffffffffffffffffffffffffffff168273ffffffffffffffffffffffffffffffffffffffff16036116d8576040517f08c379a00000000000000000000000000000000000000000000000000000000081526004016116cf9061470d565b60405180910390fd5b6116e1816124fd565b15611721576040517f08c379a000000000000000000000000000000000000000000000000000000000815260040161171890614779565b60405180910390fd5b61172f60008383600161253e565b611738816124fd565b15611778576040517f08c379a000000000000000000000000000000000000000000000000000000000815260040161176f90614779565b60405180910390fd5b6001600360008473ffffffffffffffffffffffffffffffffffffffff1673ffffffffffffffffffffffffffffffffffffffff16815260200190815260200160002060008282540192505081905550816002600083815260200190815260200160002060006101000a81548173ffffffffffffffffffffffffffffffffffffffff021916908373ffffffffffffffffffffffffffffffffffffffff160217905550808273ffffffffffffffffffffffffffffffffffffffff16600073ffffffffffffffffffffffffffffffffffffffff167fddf252ad1be2c89b69c2b068fc378daa952ba7f163c4a11628f55a4df523b3ef60405160405180910390a4611882600083836001612550565b5050565b61188f826124fd565b6118ce576040517f08c379a00000000000000000000000000000000000000000000000000000000081526004016118c59061480b565b60405180910390fd5b80600a600084815260200190815260200160002090816118ee919061436f565b507ff8e1a15aba9398e019f0b49df1a4fde98ee17ae345cb5f6b5e2c27f5033e8ce78260405161191e9190613737565b60405180910390a15050565b6001816000016000828254019250508190555050565b611949816124fd565b611988576040517f08c379a000000000000000000000000000000000000000000000000000000000815260040161197f9061448d565b60405180910390fd5b50565b600033905090565b816004600083815260200190815260200160002060006101000a81548173ffffffffffffffffffffffffffffffffffffffff021916908373ffffffffffffffffffffffffffffffffffffffff160217905550808273ffffffffffffffffffffffffffffffffffffffff16611a0683610e6e565b73ffffffffffffffffffffffffffffffffffffffff167f8c5be1e5ebec7d5bd14f71427d1e84f3dd0314c0f7b2291e5b200ac8c7c3b92560405160405180910390a45050565b600080611a5883610e6e565b90508073ffffffffffffffffffffffffffffffffffffffff168473ffffffffffffffffffffffffffffffffffffffff161480611a9a5750611a998185611382565b5b80611ad857508373ffffffffffffffffffffffffffffffffffffffff16611ac084610800565b73ffffffffffffffffffffffffffffffffffffffff16145b91505092915050565b8273ffffffffffffffffffffffffffffffffffffffff16611b0182610e6e565b73ffffffffffffffffffffffffffffffffffffffff1614611b57576040517f08c379a0000000000000000000000000000000000000000000000000000000008152600401611b4e9061489d565b60405180910390fd5b600073ffffffffffffffffffffffffffffffffffffffff168273ffffffffffffffffffffffffffffffffffffffff1603611bc6576040517f08c379a0000000000000000000000000000000000000000000000000000000008152600401611bbd9061492f565b60405180910390fd5b611bd3838383600161253e565b8273ffffffffffffffffffffffffffffffffffffffff16611bf382610e6e565b73ffffffffffffffffffffffffffffffffffffffff1614611c49576040517f08c379a0000000000000000000000000000000000000000000000000000000008152600401611c409061489d565b60405180910390fd5b6004600082815260200190815260200160002060006101000a81549073ffffffffffffffffffffffffffffffffffffffff02191690556001600360008573ffffffffffffffffffffffffffffffffffffffff1673ffffffffffffffffffffffffffffffffffffffff168152602001908152602001600020600082825403925050819055506001600360008473ffffffffffffffffffffffffffffffffffffffff1673ffffffffffffffffffffffffffffffffffffffff16815260200190815260200160002060008282540192505081905550816002600083815260200190815260200160002060006101000a81548173ffffffffffffffffffffffffffffffffffffffff021916908373ffffffffffffffffffffffffffffffffffffffff160217905550808273ffffffffffffffffffffffffffffffffffffffff168473ffffffffffffffffffffffffffffffffffffffff167fddf252ad1be2c89b69c2b068fc378daa952ba7f163c4a11628f55a4df523b3ef60405160405180910390a4611dd58383836001612550565b505050565b6000612710905090565b611dee82826111b6565b611ec1576001600b600084815260200190815260200160002060000160008373ffffffffffffffffffffffffffffffffffffffff1673ffffffffffffffffffffffffffffffffffffffff16815260200190815260200160002060006101000a81548160ff021916908315150217905550611e6661198b565b73ffffffffffffffffffffffffffffffffffffffff168173ffffffffffffffffffffffffffffffffffffffff16837f2f8788117e7eff1d82e926ec794901d17c78024a50270940304540a733656f0d60405160405180910390a45b5050565b611ecf82826111b6565b15611fa3576000600b600084815260200190815260200160002060000160008373ffffffffffffffffffffffffffffffffffffffff1673ffffffffffffffffffffffffffffffffffffffff16815260200190815260200160002060006101000a81548160ff021916908315150217905550611f4861198b565b73ffffffffffffffffffffffffffffffffffffffff168173ffffffffffffffffffffffffffffffffffffffff16837ff6391f5c32d9c69d2a47ea670b442974b53935d1edc7fd64eb21e047a839171b60405160405180910390a45b5050565b611fb081612556565b50565b60006002600083815260200190815260200160002060009054906101000a900473ffffffffffffffffffffffffffffffffffffffff169050919050565b6060600f8054611fff90613d26565b80601f016020809104026020016040519081016040528092919081815260200182805461202b90613d26565b80156120785780601f1061204d57610100808354040283529160200191612078565b820191906000526020600020905b81548152906001019060200180831161205b57829003601f168201915b5050505050905090565b8173ffffffffffffffffffffffffffffffffffffffff168373ffffffffffffffffffffffffffffffffffffffff16036120f0576040517f08c379a00000000000000000000000000000000000000000000000000000000081526004016120e79061499b565b60405180910390fd5b80600560008573ffffffffffffffffffffffffffffffffffffffff1673ffffffffffffffffffffffffffffffffffffffff16815260200190815260200160002060008473ffffffffffffffffffffffffffffffffffffffff1673ffffffffffffffffffffffffffffffffffffffff16815260200190815260200160002060006101000a81548160ff0219169083151502179055508173ffffffffffffffffffffffffffffffffffffffff168373ffffffffffffffffffffffffffffffffffffffff167f17307eab39ab6107e8899845ad3d59bd9653f200f220920489ca2b5937696c31836040516121e19190613535565b60405180910390a3505050565b6121f9848484611ae1565b612205848484846125a9565b612244576040517f08c379a000000000000000000000000000000000000000000000000000000000815260040161223b90614a2d565b60405180910390fd5b50505050565b606061225582611940565b6000600a6000848152602001908152602001600020805461227590613d26565b80601f01602080910402602001604051908101604052809291908181526020018280546122a190613d26565b80156122ee5780601f106122c3576101008083540402835291602001916122ee565b820191906000526020600020905b8154815290600101906020018083116122d157829003601f168201915b5050505050905060006122ff611ff0565b90506000815103612314578192505050612357565b600082511115612349578082604051602001612331929190614a89565b60405160208183030381529060405292505050612357565b61235284612730565b925050505b919050565b6000600560008473ffffffffffffffffffffffffffffffffffffffff1673ffffffffffffffffffffffffffffffffffffffff16815260200190815260200160002060008373ffffffffffffffffffffffffffffffffffffffff1673ffffffffffffffffffffffffffffffffffffffff16815260200190815260200160002060009054906101000a900460ff16905092915050565b6123fa8282611de4565b5050565b60007f7965db0b000000000000000000000000000000000000000000000000000000007bffffffffffffffffffffffffffffffffffffffffffffffffffffffff1916827bffffffffffffffffffffffffffffffffffffffffffffffffffffffff19161480612471575061247082612798565b5b9050919050565b61248282826111b6565b6124f95761248f816127f9565b61249d8360001c6020612826565b6040516020016124ae929190614b45565b6040516020818303038152906040526040517f08c379a00000000000000000000000000000000000000000000000000000000081526004016124f091906137d1565b60405180910390fd5b5050565b60008073ffffffffffffffffffffffffffffffffffffffff1661251f83611fb3565b73ffffffffffffffffffffffffffffffffffffffff1614159050919050565b61254a84848484612a62565b50505050565b50505050565b61255f81612bc0565b6000600a6000838152602001908152602001600020805461257f90613d26565b9050146125a657600a600082815260200190815260200160002060006125a59190613424565b5b50565b60006125ca8473ffffffffffffffffffffffffffffffffffffffff16612d0e565b15612723578373ffffffffffffffffffffffffffffffffffffffff1663150b7a026125f361198b565b8786866040518563ffffffff1660e01b81526004016126159493929190614bd4565b6020604051808303816000875af192505050801561265157506040513d601f19601f8201168201806040525081019061264e9190614c35565b60015b6126d3573d8060008114612681576040519150601f19603f3d011682016040523d82523d6000602084013e612686565b606091505b5060008151036126cb576040517f08c379a00000000000000000000000000000000000000000000000000000000081526004016126c290614a2d565b60405180910390fd5b805181602001fd5b63150b7a0260e01b7bffffffffffffffffffffffffffffffffffffffffffffffffffffffff1916817bffffffffffffffffffffffffffffffffffffffffffffffffffffffff191614915050612728565b600190505b949350505050565b606061273b82611940565b6000612745611ff0565b905060008151116127655760405180602001604052806000815250612790565b8061276f84612d31565b604051602001612780929190614a89565b6040516020818303038152906040525b915050919050565b6000634906490660e01b7bffffffffffffffffffffffffffffffffffffffffffffffffffffffff1916827bffffffffffffffffffffffffffffffffffffffffffffffffffffffff191614806127f257506127f182612dff565b5b9050919050565b606061281f8273ffffffffffffffffffffffffffffffffffffffff16601460ff16612826565b9050919050565b6060600060028360026128399190613f3c565b6128439190614c62565b67ffffffffffffffff81111561285c5761285b61356b565b5b6040519080825280601f01601f19166020018201604052801561288e5781602001600182028036833780820191505090505b5090507f3000000000000000000000000000000000000000000000000000000000000000816000815181106128c6576128c5614194565b5b60200101907effffffffffffffffffffffffffffffffffffffffffffffffffffffffffffff1916908160001a9053507f78000000000000000000000000000000000000000000000000000000000000008160018151811061292a57612929614194565b5b60200101907effffffffffffffffffffffffffffffffffffffffffffffffffffffffffffff1916908160001a9053506000600184600261296a9190613f3c565b6129749190614c62565b90505b6001811115612a14577f3031323334353637383961626364656600000000000000000000000000000000600f8616601081106129b6576129b5614194565b5b1a60f81b8282815181106129cd576129cc614194565b5b60200101907effffffffffffffffffffffffffffffffffffffffffffffffffffffffffffff1916908160001a905350600485901c945080612a0d90614c96565b9050612977565b5060008414612a58576040517f08c379a0000000000000000000000000000000000000000000000000000000008152600401612a4f90614d0b565b60405180910390fd5b8091505092915050565b612a6e84848484612e79565b6001811115612ab2576040517f08c379a0000000000000000000000000000000000000000000000000000000008152600401612aa990614d9d565b60405180910390fd5b6000829050600073ffffffffffffffffffffffffffffffffffffffff168573ffffffffffffffffffffffffffffffffffffffff1603612af957612af481612e7f565b612b38565b8373ffffffffffffffffffffffffffffffffffffffff168573ffffffffffffffffffffffffffffffffffffffff1614612b3757612b368582612ec8565b5b5b600073ffffffffffffffffffffffffffffffffffffffff168473ffffffffffffffffffffffffffffffffffffffff1603612b7a57612b7581613035565b612bb9565b8473ffffffffffffffffffffffffffffffffffffffff168473ffffffffffffffffffffffffffffffffffffffff1614612bb857612bb78482613106565b5b5b5050505050565b6000612bcb82610e6e565b9050612bdb81600084600161253e565b612be482610e6e565b90506004600083815260200190815260200160002060006101000a81549073ffffffffffffffffffffffffffffffffffffffff02191690556001600360008373ffffffffffffffffffffffffffffffffffffffff1673ffffffffffffffffffffffffffffffffffffffff168152602001908152602001600020600082825403925050819055506002600083815260200190815260200160002060006101000a81549073ffffffffffffffffffffffffffffffffffffffff021916905581600073ffffffffffffffffffffffffffffffffffffffff168273ffffffffffffffffffffffffffffffffffffffff167fddf252ad1be2c89b69c2b068fc378daa952ba7f163c4a11628f55a4df523b3ef60405160405180910390a4612d0a816000846001612550565b5050565b6000808273ffffffffffffffffffffffffffffffffffffffff163b119050919050565b606060006001612d4084613185565b01905060008167ffffffffffffffff811115612d5f57612d5e61356b565b5b6040519080825280601f01601f191660200182016040528015612d915781602001600182028036833780820191505090505b509050600082602001820190505b600115612df4578080600190039150507f3031323334353637383961626364656600000000000000000000000000000000600a86061a8153600a8581612de857612de7613f7e565b5b04945060008503612d9f575b819350505050919050565b60007f780e9d63000000000000000000000000000000000000000000000000000000007bffffffffffffffffffffffffffffffffffffffffffffffffffffffff1916827bffffffffffffffffffffffffffffffffffffffffffffffffffffffff19161480612e725750612e71826132d8565b5b9050919050565b50505050565b6008805490506009600083815260200190815260200160002081905550600881908060018154018082558091505060019003906000526020600020016000909190919091505550565b60006001612ed584610f03565b612edf9190614dbd565b9050600060076000848152602001908152602001600020549050818114612fc4576000600660008673ffffffffffffffffffffffffffffffffffffffff1673ffffffffffffffffffffffffffffffffffffffff168152602001908152602001600020600084815260200190815260200160002054905080600660008773ffffffffffffffffffffffffffffffffffffffff1673ffffffffffffffffffffffffffffffffffffffff168152602001908152602001600020600084815260200190815260200160002081905550816007600083815260200190815260200160002081905550505b6007600084815260200190815260200160002060009055600660008573ffffffffffffffffffffffffffffffffffffffff1673ffffffffffffffffffffffffffffffffffffffff16815260200190815260200160002060008381526020019081526020016000206000905550505050565b600060016008805490506130499190614dbd565b905060006009600084815260200190815260200160002054905060006008838154811061307957613078614194565b5b90600052602060002001549050806008838154811061309b5761309a614194565b5b9060005260206000200181905550816009600083815260200190815260200160002081905550600960008581526020019081526020016000206000905560088054806130ea576130e9614df1565b5b6001900381819060005260206000200160009055905550505050565b600061311183610f03565b905081600660008573ffffffffffffffffffffffffffffffffffffffff1673ffffffffffffffffffffffffffffffffffffffff168152602001908152602001600020600083815260200190815260200160002081905550806007600084815260200190815260200160002081905550505050565b600080600090507a184f03e93ff9f4daa797ed6e38ed64bf6a1f01000000000000000083106131e3577a184f03e93ff9f4daa797ed6e38ed64bf6a1f01000000000000000083816131d9576131d8613f7e565b5b0492506040810190505b6d04ee2d6d415b85acef81000000008310613220576d04ee2d6d415b85acef8100000000838161321657613215613f7e565b5b0492506020810190505b662386f26fc10000831061324f57662386f26fc10000838161324557613244613f7e565b5b0492506010810190505b6305f5e1008310613278576305f5e100838161326e5761326d613f7e565b5b0492506008810190505b612710831061329d57612710838161329357613292613f7e565b5b0492506004810190505b606483106132c057606483816132b6576132b5613f7e565b5b0492506002810190505b600a83106132cf576001810190505b80915050919050565b60007f80ac58cd000000000000000000000000000000000000000000000000000000007bffffffffffffffffffffffffffffffffffffffffffffffffffffffff1916827bffffffffffffffffffffffffffffffffffffffffffffffffffffffff191614806133a357507f5b5e139f000000000000000000000000000000000000000000000000000000007bffffffffffffffffffffffffffffffffffffffffffffffffffffffff1916827bffffffffffffffffffffffffffffffffffffffffffffffffffffffff1916145b806133b357506133b2826133ba565b5b9050919050565b60007f01ffc9a7000000000000000000000000000000000000000000000000000000007bffffffffffffffffffffffffffffffffffffffffffffffffffffffff1916827bffffffffffffffffffffffffffffffffffffffffffffffffffffffff1916149050919050565b50805461343090613d26565b6000825580601f106134425750613461565b601f0160209004906000526020600020908101906134609190613464565b5b50565b5b8082111561347d576000816000905550600101613465565b5090565b6000604051905090565b600080fd5b600080fd5b60007fffffffff0000000000000000000000000000000000000000000000000000000082169050919050565b6134ca81613495565b81146134d557600080fd5b50565b6000813590506134e7816134c1565b92915050565b6000602082840312156135035761350261348b565b5b6000613511848285016134d8565b91505092915050565b60008115159050919050565b61352f8161351a565b82525050565b600060208201905061354a6000830184613526565b92915050565b600080fd5b600080fd5b6000601f19601f8301169050919050565b7f4e487b7100000000000000000000000000000000000000000000000000000000600052604160045260246000fd5b6135a38261355a565b810181811067ffffffffffffffff821117156135c2576135c161356b565b5b80604052505050565b60006135d5613481565b90506135e1828261359a565b919050565b600067ffffffffffffffff8211156136015761360061356b565b5b61360a8261355a565b9050602081019050919050565b82818337600083830152505050565b6000613639613634846135e6565b6135cb565b90508281526020810184848401111561365557613654613555565b5b613660848285613617565b509392505050565b600082601f83011261367d5761367c613550565b5b813561368d848260208601613626565b91505092915050565b6000819050919050565b6136a981613696565b81146136b457600080fd5b50565b6000813590506136c6816136a0565b92915050565b600080604083850312156136e3576136e261348b565b5b600083013567ffffffffffffffff81111561370157613700613490565b5b61370d85828601613668565b925050602061371e858286016136b7565b9150509250929050565b61373181613696565b82525050565b600060208201905061374c6000830184613728565b92915050565b600081519050919050565b600082825260208201905092915050565b60005b8381101561378c578082015181840152602081019050613771565b60008484015250505050565b60006137a382613752565b6137ad818561375d565b93506137bd81856020860161376e565b6137c68161355a565b840191505092915050565b600060208201905081810360008301526137eb8184613798565b905092915050565b6000602082840312156138095761380861348b565b5b6000613817848285016136b7565b91505092915050565b600073ffffffffffffffffffffffffffffffffffffffff82169050919050565b600061384b82613820565b9050919050565b61385b81613840565b82525050565b60006020820190506138766000830184613852565b92915050565b61388581613840565b811461389057600080fd5b50565b6000813590506138a28161387c565b92915050565b600080604083850312156138bf576138be61348b565b5b60006138cd85828601613893565b92505060206138de858286016136b7565b9150509250929050565b6000806000606084860312156139015761390061348b565b5b600061390f86828701613893565b935050602061392086828701613893565b9250506040613931868287016136b7565b9150509250925092565b6000819050919050565b61394e8161393b565b811461395957600080fd5b50565b60008135905061396b81613945565b92915050565b6000602082840312156139875761398661348b565b5b60006139958482850161395c565b91505092915050565b6139a78161393b565b82525050565b60006020820190506139c2600083018461399e565b92915050565b600080604083850312156139df576139de61348b565b5b60006139ed858286016136b7565b92505060206139fe858286016136b7565b9150509250929050565b6000604082019050613a1d6000830185613852565b613a2a6020830184613728565b9392505050565b60008060408385031215613a4857613a4761348b565b5b6000613a568582860161395c565b9250506020613a6785828601613893565b9150509250929050565b600060208284031215613a8757613a8661348b565b5b600082013567ffffffffffffffff811115613aa557613aa4613490565b5b613ab184828501613668565b91505092915050565b600060208284031215613ad057613acf61348b565b5b6000613ade84828501613893565b91505092915050565b60008060408385031215613afe57613afd61348b565b5b6000613b0c858286016136b7565b9250506020613b1d85828601613893565b9150509250929050565b613b308161351a565b8114613b3b57600080fd5b50565b600081359050613b4d81613b27565b92915050565b60008060408385031215613b6a57613b6961348b565b5b6000613b7885828601613893565b9250506020613b8985828601613b3e565b9150509250929050565b600067ffffffffffffffff821115613bae57613bad61356b565b5b613bb78261355a565b9050602081019050919050565b6000613bd7613bd284613b93565b6135cb565b905082815260208101848484011115613bf357613bf2613555565b5b613bfe848285613617565b509392505050565b600082601f830112613c1b57613c1a613550565b5b8135613c2b848260208601613bc4565b91505092915050565b60008060008060808587031215613c4e57613c4d61348b565b5b6000613c5c87828801613893565b9450506020613c6d87828801613893565b9350506040613c7e878288016136b7565b925050606085013567ffffffffffffffff811115613c9f57613c9e613490565b5b613cab87828801613c06565b91505092959194509250565b60008060408385031215613cce57613ccd61348b565b5b6000613cdc85828601613893565b9250506020613ced85828601613893565b9150509250929050565b7f4e487b7100000000000000000000000000000000000000000000000000000000600052602260045260246000fd5b60006002820490506001821680613d3e57607f821691505b602082108103613d5157613d50613cf7565b5b50919050565b7f4552433732313a20617070726f76616c20746f2063757272656e74206f776e6560008201527f7200000000000000000000000000000000000000000000000000000000000000602082015250565b6000613db360218361375d565b9150613dbe82613d57565b604082019050919050565b60006020820190508181036000830152613de281613da6565b9050919050565b7f4552433732313a20617070726f76652063616c6c6572206973206e6f7420746f60008201527f6b656e206f776e6572206f7220617070726f76656420666f7220616c6c000000602082015250565b6000613e45603d8361375d565b9150613e5082613de9565b604082019050919050565b60006020820190508181036000830152613e7481613e38565b9050919050565b7f4552433732313a2063616c6c6572206973206e6f7420746f6b656e206f776e6560008201527f72206f7220617070726f76656400000000000000000000000000000000000000602082015250565b6000613ed7602d8361375d565b9150613ee282613e7b565b604082019050919050565b60006020820190508181036000830152613f0681613eca565b9050919050565b7f4e487b7100000000000000000000000000000000000000000000000000000000600052601160045260246000fd5b6000613f4782613696565b9150613f5283613696565b9250828202613f6081613696565b91508282048414831517613f7757613f76613f0d565b5b5092915050565b7f4e487b7100000000000000000000000000000000000000000000000000000000600052601260045260246000fd5b6000613fb882613696565b9150613fc383613696565b925082613fd357613fd2613f7e565b5b828204905092915050565b7f455243373231456e756d657261626c653a206f776e657220696e646578206f7560008201527f74206f6620626f756e6473000000000000000000000000000000000000000000602082015250565b600061403a602b8361375d565b915061404582613fde565b604082019050919050565b600060208201905081810360008301526140698161402d565b9050919050565b7f416363657373436f6e74726f6c3a2063616e206f6e6c792072656e6f756e636560008201527f20726f6c657320666f722073656c660000000000000000000000000000000000602082015250565b60006140cc602f8361375d565b91506140d782614070565b604082019050919050565b600060208201905081810360008301526140fb816140bf565b9050919050565b7f455243373231456e756d657261626c653a20676c6f62616c20696e646578206f60008201527f7574206f6620626f756e64730000000000000000000000000000000000000000602082015250565b600061415e602c8361375d565b915061416982614102565b604082019050919050565b6000602082019050818103600083015261418d81614151565b9050919050565b7f4e487b7100000000000000000000000000000000000000000000000000000000600052603260045260246000fd5b60008190508160005260206000209050919050565b60006020601f8301049050919050565b600082821b905092915050565b6000600883026142257fffffffffffffffffffffffffffffffffffffffffffffffffffffffffffffffff826141e8565b61422f86836141e8565b95508019841693508086168417925050509392505050565b6000819050919050565b600061426c61426761426284613696565b614247565b613696565b9050919050565b6000819050919050565b61428683614251565b61429a61429282614273565b8484546141f5565b825550505050565b600090565b6142af6142a2565b6142ba81848461427d565b505050565b5b818110156142de576142d36000826142a7565b6001810190506142c0565b5050565b601f821115614323576142f4816141c3565b6142fd846141d8565b8101602085101561430c578190505b614320614318856141d8565b8301826142bf565b50505b505050565b600082821c905092915050565b600061434660001984600802614328565b1980831691505092915050565b600061435f8383614335565b9150826002028217905092915050565b61437882613752565b67ffffffffffffffff8111156143915761439061356b565b5b61439b8254613d26565b6143a68282856142e2565b600060209050601f8311600181146143d957600084156143c7578287015190505b6143d18582614353565b865550614439565b601f1984166143e7866141c3565b60005b8281101561440f578489015182556001820191506020850194506020810190506143ea565b8683101561442c5784890151614428601f891682614335565b8355505b6001600288020188555050505b505050505050565b7f4552433732313a20696e76616c696420746f6b656e2049440000000000000000600082015250565b600061447760188361375d565b915061448282614441565b602082019050919050565b600060208201905081810360008301526144a68161446a565b9050919050565b7f4552433732313a2061646472657373207a65726f206973206e6f74206120766160008201527f6c6964206f776e65720000000000000000000000000000000000000000000000602082015250565b600061450960298361375d565b9150614514826144ad565b604082019050919050565b60006020820190508181036000830152614538816144fc565b9050919050565b60008151905061454e816136a0565b92915050565b60006020828403121561456a5761456961348b565b5b60006145788482850161453f565b91505092915050565b7f496e76616c696420506f696e7473000000000000000000000000000000000000600082015250565b60006145b7600e8361375d565b91506145c282614581565b602082019050919050565b600060208201905081810360008301526145e6816145aa565b9050919050565b6000815190506145fc81613b27565b92915050565b6000602082840312156146185761461761348b565b5b6000614626848285016145ed565b91505092915050565b7f4f776e61626c653a206e6577206f776e657220697320746865207a65726f206160008201527f6464726573730000000000000000000000000000000000000000000000000000602082015250565b600061468b60268361375d565b91506146968261462f565b604082019050919050565b600060208201905081810360008301526146ba8161467e565b9050919050565b7f4552433732313a206d696e7420746f20746865207a65726f2061646472657373600082015250565b60006146f760208361375d565b9150614702826146c1565b602082019050919050565b60006020820190508181036000830152614726816146ea565b9050919050565b7f4552433732313a20746f6b656e20616c7265616479206d696e74656400000000600082015250565b6000614763601c8361375d565b915061476e8261472d565b602082019050919050565b6000602082019050818103600083015261479281614756565b9050919050565b7f45524337323155524953746f726167653a2055524920736574206f66206e6f6e60008201527f6578697374656e7420746f6b656e000000000000000000000000000000000000602082015250565b60006147f5602e8361375d565b915061480082614799565b604082019050919050565b60006020820190508181036000830152614824816147e8565b9050919050565b7f4552433732313a207472616e736665722066726f6d20696e636f72726563742060008201527f6f776e6572000000000000000000000000000000000000000000000000000000602082015250565b600061488760258361375d565b91506148928261482b565b604082019050919050565b600060208201905081810360008301526148b68161487a565b9050919050565b7f4552433732313a207472616e7366657220746f20746865207a65726f2061646460008201527f7265737300000000000000000000000000000000000000000000000000000000602082015250565b600061491960248361375d565b9150614924826148bd565b604082019050919050565b600060208201905081810360008301526149488161490c565b9050919050565b7f4552433732313a20617070726f766520746f2063616c6c657200000000000000600082015250565b600061498560198361375d565b91506149908261494f565b602082019050919050565b600060208201905081810360008301526149b481614978565b9050919050565b7f4552433732313a207472616e7366657220746f206e6f6e20455243373231526560008201527f63656976657220696d706c656d656e7465720000000000000000000000000000602082015250565b6000614a1760328361375d565b9150614a22826149bb565b604082019050919050565b60006020820190508181036000830152614a4681614a0a565b9050919050565b600081905092915050565b6000614a6382613752565b614a6d8185614a4d565b9350614a7d81856020860161376e565b80840191505092915050565b6000614a958285614a58565b9150614aa18284614a58565b91508190509392505050565b7f416363657373436f6e74726f6c3a206163636f756e7420000000000000000000600082015250565b6000614ae3601783614a4d565b9150614aee82614aad565b601782019050919050565b7f206973206d697373696e6720726f6c6520000000000000000000000000000000600082015250565b6000614b2f601183614a4d565b9150614b3a82614af9565b601182019050919050565b6000614b5082614ad6565b9150614b5c8285614a58565b9150614b6782614b22565b9150614b738284614a58565b91508190509392505050565b600081519050919050565b600082825260208201905092915050565b6000614ba682614b7f565b614bb08185614b8a565b9350614bc081856020860161376e565b614bc98161355a565b840191505092915050565b6000608082019050614be96000830187613852565b614bf66020830186613852565b614c036040830185613728565b8181036060830152614c158184614b9b565b905095945050505050565b600081519050614c2f816134c1565b92915050565b600060208284031215614c4b57614c4a61348b565b5b6000614c5984828501614c20565b91505092915050565b6000614c6d82613696565b9150614c7883613696565b9250828201905080821115614c9057614c8f613f0d565b5b92915050565b6000614ca182613696565b915060008203614cb457614cb3613f0d565b5b600182039050919050565b7f537472696e67733a20686578206c656e67746820696e73756666696369656e74600082015250565b6000614cf560208361375d565b9150614d0082614cbf565b602082019050919050565b60006020820190508181036000830152614d2481614ce8565b9050919050565b7f455243373231456e756d657261626c653a20636f6e736563757469766520747260008201527f616e7366657273206e6f7420737570706f727465640000000000000000000000602082015250565b6000614d8760358361375d565b9150614d9282614d2b565b604082019050919050565b60006020820190508181036000830152614db681614d7a565b9050919050565b6000614dc882613696565b9150614dd383613696565b9250828203905081811115614deb57614dea613f0d565b5b92915050565b7f4e487b7100000000000000000000000000000000000000000000000000000000600052603160045260246000fdfea2646970667358221220688973da3b48a97684db30d42fa3a105425fc3d417d0bc3750195ebd574c26f564736f6c63430008130033",
  "immutableReferences": {},
  "source": "// SPDX-License-Identifier: UNLICENSED\npragma solidity 0.8.19;\n\nimport \"@openzeppelin/contracts/token/ERC721/extensions/ERC721Enumerable.sol\";\nimport \"@openzeppelin/contracts/token/ERC721/extensions/ERC721Burnable.sol\";\nimport \"@openzeppelin/contracts/token/ERC721/extensions/ERC721URIStorage.sol\";\nimport \"@openzeppelin/contracts/utils/Context.sol\";\nimport \"@openzeppelin/contracts/utils/Counters.sol\";\nimport \"@openzeppelin/contracts/access/AccessControl.sol\";\nimport \"@openzeppelin/contracts/token/common/ERC2981.sol\";\nimport \"@openzeppelin/contracts/interfaces/IERC20.sol\";\n\ninterface ILP is IERC20 {\n    function burn(uint256 amount) external returns(bool);\n}\n\n\ncontract NFTGallery is\n    Context,\n    ERC721Enumerable,\n    ERC721Burnable,\n    ERC721URIStorage,\n    AccessControl,\n    ERC2981\n    {\n    using Counters for Counters.Counter;\n    Counters.Counter private _tokenIdTracker;\n    string private baseTokenURI;\n    address public owner;\n    address public LPAddress;\n\n    mapping(uint256 => uint256) private NFTPrice;\n\n    // Create a new role identifier for the minter role\n    bytes32 public constant ADMIN_ROLE = keccak256(\"ADMIN_ROLE\");\n\n    event OwnershipTransferred(\n        address indexed previousOwner,\n        address indexed newOwner\n    );\n\n    constructor(\n        string memory name,\n        string memory symbol,\n        string memory _baseTokenURI,\n        address _LPAddress\n    ) ERC721(name, symbol) {\n        baseTokenURI = _baseTokenURI;\n        owner = _msgSender();\n        LPAddress = _LPAddress;\n        _setupRole(\"ADMIN_ROLE\", msg.sender);\n        _tokenIdTracker.increment();\n    }\n\n    function transferOwnership(address newOwner)\n        external\n        onlyRole(\"ADMIN_ROLE\")\n        returns (bool)\n    {\n        require(\n            newOwner != address(0),\n            \"Ownable: new owner is the zero address\"\n        );\n        _revokeRole(\"ADMIN_ROLE\", owner);\n        emit OwnershipTransferred(owner, newOwner);\n        owner = newOwner;\n        _setupRole(\"ADMIN_ROLE\", newOwner);\n        return true;\n    }\n\n    function baseURI() external view returns (string memory) {\n        return _baseURI();\n    }\n\n    function setBaseURI(string memory _baseTokenURI) external onlyRole(\"ADMIN_ROLE\"){\n        baseTokenURI = _baseTokenURI;\n    }\n\n    function mint(\n        string memory _tokenURI,\n        uint256 price\n    ) external virtual onlyRole(\"ADMIN_ROLE\") returns (uint256 _tokenId) {\n        // We cannot just use balanceOf to create the new tokenId because tokens\n        // can be burned (destroyed), so we need a separate counter.\n        _tokenId = _tokenIdTracker.current();\n        _mint(owner, _tokenId);\n        _setTokenURI(_tokenId, _tokenURI);\n        NFTPrice[_tokenId] = price;\n        _tokenIdTracker.increment();\n        return _tokenId;\n    }\n\n    function redeem(uint256 tokenId, address tokenAddress) external {\n        require(IERC20(LPAddress).balanceOf(msg.sender) >= NFTPrice[tokenId], \"Invalid Points\");\n        ILP(tokenAddress).burn(NFTPrice[tokenId]);\n        safeTransferFrom(owner, msg.sender, tokenId);\n    }\n\n    function _burn(uint256 tokenId)\n        internal\n        override(ERC721, ERC721URIStorage)\n    {\n        super._burn(tokenId);\n    }\n\n    function tokenURI(uint256 tokenId)\n        public\n        view\n        override(ERC721, ERC721URIStorage)\n        returns (string memory)\n    {\n        return super.tokenURI(tokenId);\n    }\n\n    function getPriceById(uint256 tokenId) public view returns(uint256) {\n        return NFTPrice[tokenId];\n    }\n\n    function _baseURI() internal view override returns (string memory) {\n        return baseTokenURI;\n    }\n\n    function _beforeTokenTransfer(\n        address from,\n        address to,\n        uint256 tokenId,\n        uint256 batchSize\n    ) internal virtual override(ERC721, ERC721Enumerable) {\n        super._beforeTokenTransfer(from, to, tokenId, batchSize);\n    }\n\n    function isApprovedForAll(address _owner, address operator) public view virtual override(IERC721, ERC721) returns (bool) {\n        if(_owner == owner) {return true;} \n        return super.isApprovedForAll(_owner, operator);\n    }\n\n    /**\n     * @dev See {IERC165-supportsInterface}.\n     */\n    function supportsInterface(bytes4 interfaceId)\n        public\n        view\n        virtual\n        override(ERC721, ERC2981, ERC721Enumerable, AccessControl, ERC721URIStorage)\n        returns (bool)\n    {\n        return super.supportsInterface(interfaceId);\n    }\n}\n",
  "sourcePath": "/Users/apple/Workspace/validusTransfer/contracts/NFTGallery.sol",
  "compiler": {
    "name": "solc",
    "version": "0.8.19+commit.7dd6d404.Emscripten.clang"
  },
  "schemaVersion": "3.4.13",
  "updatedAt": "2023-06-26T09:35:02.548Z",
  "networkType": "ethereum",
  "devdoc": {
    "events": {
      "Approval(address,address,uint256)": {
        "details": "Emitted when `owner` enables `approved` to manage the `tokenId` token."
      },
      "ApprovalForAll(address,address,bool)": {
        "details": "Emitted when `owner` enables or disables (`approved`) `operator` to manage all of its assets."
      },
      "BatchMetadataUpdate(uint256,uint256)": {
        "details": "This event emits when the metadata of a range of tokens is changed. So that the third-party platforms such as NFT market could timely update the images and related attributes of the NFTs."
      },
      "MetadataUpdate(uint256)": {
        "details": "This event emits when the metadata of a token is changed. So that the third-party platforms such as NFT market could timely update the images and related attributes of the NFT."
      },
      "RoleAdminChanged(bytes32,bytes32,bytes32)": {
        "details": "Emitted when `newAdminRole` is set as ``role``'s admin role, replacing `previousAdminRole` `DEFAULT_ADMIN_ROLE` is the starting admin for all roles, despite {RoleAdminChanged} not being emitted signaling this. _Available since v3.1._"
      },
      "RoleGranted(bytes32,address,address)": {
        "details": "Emitted when `account` is granted `role`. `sender` is the account that originated the contract call, an admin role bearer except when using {AccessControl-_setupRole}."
      },
      "RoleRevoked(bytes32,address,address)": {
        "details": "Emitted when `account` is revoked `role`. `sender` is the account that originated the contract call:   - if using `revokeRole`, it is the admin role bearer   - if using `renounceRole`, it is the role bearer (i.e. `account`)"
      },
      "Transfer(address,address,uint256)": {
        "details": "Emitted when `tokenId` token is transferred from `from` to `to`."
      }
    },
    "kind": "dev",
    "methods": {
      "approve(address,uint256)": {
        "details": "See {IERC721-approve}."
      },
      "balanceOf(address)": {
        "details": "See {IERC721-balanceOf}."
      },
      "burn(uint256)": {
        "details": "Burns `tokenId`. See {ERC721-_burn}. Requirements: - The caller must own `tokenId` or be an approved operator."
      },
      "getApproved(uint256)": {
        "details": "See {IERC721-getApproved}."
      },
      "getRoleAdmin(bytes32)": {
        "details": "Returns the admin role that controls `role`. See {grantRole} and {revokeRole}. To change a role's admin, use {_setRoleAdmin}."
      },
      "grantRole(bytes32,address)": {
        "details": "Grants `role` to `account`. If `account` had not been already granted `role`, emits a {RoleGranted} event. Requirements: - the caller must have ``role``'s admin role. May emit a {RoleGranted} event."
      },
      "hasRole(bytes32,address)": {
        "details": "Returns `true` if `account` has been granted `role`."
      },
      "name()": {
        "details": "See {IERC721Metadata-name}."
      },
      "ownerOf(uint256)": {
        "details": "See {IERC721-ownerOf}."
      },
      "renounceRole(bytes32,address)": {
        "details": "Revokes `role` from the calling account. Roles are often managed via {grantRole} and {revokeRole}: this function's purpose is to provide a mechanism for accounts to lose their privileges if they are compromised (such as when a trusted device is misplaced). If the calling account had been revoked `role`, emits a {RoleRevoked} event. Requirements: - the caller must be `account`. May emit a {RoleRevoked} event."
      },
      "revokeRole(bytes32,address)": {
        "details": "Revokes `role` from `account`. If `account` had been granted `role`, emits a {RoleRevoked} event. Requirements: - the caller must have ``role``'s admin role. May emit a {RoleRevoked} event."
      },
      "royaltyInfo(uint256,uint256)": {
        "details": "Returns how much royalty is owed and to whom, based on a sale price that may be denominated in any unit of exchange. The royalty amount is denominated and should be paid in that same unit of exchange."
      },
      "safeTransferFrom(address,address,uint256)": {
        "details": "See {IERC721-safeTransferFrom}."
      },
      "safeTransferFrom(address,address,uint256,bytes)": {
        "details": "See {IERC721-safeTransferFrom}."
      },
      "setApprovalForAll(address,bool)": {
        "details": "See {IERC721-setApprovalForAll}."
      },
      "supportsInterface(bytes4)": {
        "details": "See {IERC165-supportsInterface}."
      },
      "symbol()": {
        "details": "See {IERC721Metadata-symbol}."
      },
      "tokenByIndex(uint256)": {
        "details": "See {IERC721Enumerable-tokenByIndex}."
      },
      "tokenOfOwnerByIndex(address,uint256)": {
        "details": "See {IERC721Enumerable-tokenOfOwnerByIndex}."
      },
      "totalSupply()": {
        "details": "See {IERC721Enumerable-totalSupply}."
      },
      "transferFrom(address,address,uint256)": {
        "details": "See {IERC721-transferFrom}."
      }
    },
    "version": 1
  },
  "userdoc": {
    "kind": "user",
    "methods": {},
    "version": 1
  }
}