{
  "contractName": "RankToken",
  "abi": [
    {
      "inputs": [
        {
          "internalType": "string",
          "name": "_tokenName",
          "type": "string"
        },
        {
          "internalType": "string",
          "name": "_tokenSymbol",
          "type": "string"
        },
        {
          "internalType": "string",
          "name": "_baseTokenURI",
          "type": "string"
        }
      ],
      "stateMutability": "nonpayable",
      "type": "constructor"
    },
    {
      "anonymous": false,
      "inputs": [
        {
          "indexed": true,
          "internalType": "address",
          "name": "account",
          "type": "address"
        },
        {
          "indexed": true,
          "internalType": "address",
          "name": "operator",
          "type": "address"
        },
        {
          "indexed": false,
          "internalType": "bool",
          "name": "approved",
          "type": "bool"
        }
      ],
      "name": "ApprovalForAll",
      "type": "event"
    },
    {
      "anonymous": false,
      "inputs": [
        {
          "indexed": true,
          "internalType": "string",
          "name": "uri",
          "type": "string"
        },
        {
          "indexed": true,
          "internalType": "string",
          "name": "newuri",
          "type": "string"
        }
      ],
      "name": "BaseURIChanged",
      "type": "event"
    },
    {
      "anonymous": false,
      "inputs": [
        {
          "indexed": true,
          "internalType": "address",
          "name": "previousOwner",
          "type": "address"
        },
        {
          "indexed": true,
          "internalType": "address",
          "name": "newOwner",
          "type": "address"
        }
      ],
      "name": "OwnershipTransferred",
      "type": "event"
    },
    {
      "anonymous": false,
      "inputs": [
        {
          "indexed": true,
          "internalType": "bytes32",
          "name": "role",
          "type": "bytes32"
        },
        {
          "indexed": true,
          "internalType": "bytes32",
          "name": "previousAdminRole",
          "type": "bytes32"
        },
        {
          "indexed": true,
          "internalType": "bytes32",
          "name": "newAdminRole",
          "type": "bytes32"
        }
      ],
      "name": "RoleAdminChanged",
      "type": "event"
    },
    {
      "anonymous": false,
      "inputs": [
        {
          "indexed": true,
          "internalType": "bytes32",
          "name": "role",
          "type": "bytes32"
        },
        {
          "indexed": true,
          "internalType": "address",
          "name": "account",
          "type": "address"
        },
        {
          "indexed": true,
          "internalType": "address",
          "name": "sender",
          "type": "address"
        }
      ],
      "name": "RoleGranted",
      "type": "event"
    },
    {
      "anonymous": false,
      "inputs": [
        {
          "indexed": true,
          "internalType": "bytes32",
          "name": "role",
          "type": "bytes32"
        },
        {
          "indexed": true,
          "internalType": "address",
          "name": "account",
          "type": "address"
        },
        {
          "indexed": true,
          "internalType": "address",
          "name": "sender",
          "type": "address"
        }
      ],
      "name": "RoleRevoked",
      "type": "event"
    },
    {
      "anonymous": false,
      "inputs": [
        {
          "indexed": true,
          "internalType": "address",
          "name": "operator",
          "type": "address"
        },
        {
          "indexed": true,
          "internalType": "address",
          "name": "from",
          "type": "address"
        },
        {
          "indexed": true,
          "internalType": "address",
          "name": "to",
          "type": "address"
        },
        {
          "indexed": false,
          "internalType": "uint256[]",
          "name": "ids",
          "type": "uint256[]"
        },
        {
          "indexed": false,
          "internalType": "uint256[]",
          "name": "values",
          "type": "uint256[]"
        }
      ],
      "name": "TransferBatch",
      "type": "event"
    },
    {
      "anonymous": false,
      "inputs": [
        {
          "indexed": true,
          "internalType": "address",
          "name": "operator",
          "type": "address"
        },
        {
          "indexed": true,
          "internalType": "address",
          "name": "from",
          "type": "address"
        },
        {
          "indexed": true,
          "internalType": "address",
          "name": "to",
          "type": "address"
        },
        {
          "indexed": false,
          "internalType": "uint256",
          "name": "id",
          "type": "uint256"
        },
        {
          "indexed": false,
          "internalType": "uint256",
          "name": "value",
          "type": "uint256"
        }
      ],
      "name": "TransferSingle",
      "type": "event"
    },
    {
      "anonymous": false,
      "inputs": [
        {
          "indexed": false,
          "internalType": "string",
          "name": "value",
          "type": "string"
        },
        {
          "indexed": true,
          "internalType": "uint256",
          "name": "id",
          "type": "uint256"
        }
      ],
      "name": "URI",
      "type": "event"
    },
    {
      "inputs": [],
      "name": "ADMIN_ROLE",
      "outputs": [
        {
          "internalType": "bytes32",
          "name": "",
          "type": "bytes32"
        }
      ],
      "stateMutability": "view",
      "type": "function",
      "constant": true
    },
    {
      "inputs": [],
      "name": "DEFAULT_ADMIN_ROLE",
      "outputs": [
        {
          "internalType": "bytes32",
          "name": "",
          "type": "bytes32"
        }
      ],
      "stateMutability": "view",
      "type": "function",
      "constant": true
    },
    {
      "inputs": [
        {
          "internalType": "address",
          "name": "account",
          "type": "address"
        },
        {
          "internalType": "uint256",
          "name": "id",
          "type": "uint256"
        }
      ],
      "name": "balanceOf",
      "outputs": [
        {
          "internalType": "uint256",
          "name": "",
          "type": "uint256"
        }
      ],
      "stateMutability": "view",
      "type": "function",
      "constant": true
    },
    {
      "inputs": [
        {
          "internalType": "address[]",
          "name": "accounts",
          "type": "address[]"
        },
        {
          "internalType": "uint256[]",
          "name": "ids",
          "type": "uint256[]"
        }
      ],
      "name": "balanceOfBatch",
      "outputs": [
        {
          "internalType": "uint256[]",
          "name": "",
          "type": "uint256[]"
        }
      ],
      "stateMutability": "view",
      "type": "function",
      "constant": true
    },
    {
      "inputs": [
        {
          "internalType": "address",
          "name": "account",
          "type": "address"
        },
        {
          "internalType": "uint256",
          "name": "id",
          "type": "uint256"
        },
        {
          "internalType": "uint256",
          "name": "value",
          "type": "uint256"
        }
      ],
      "name": "burn",
      "outputs": [],
      "stateMutability": "nonpayable",
      "type": "function"
    },
    {
      "inputs": [
        {
          "internalType": "address",
          "name": "account",
          "type": "address"
        },
        {
          "internalType": "uint256[]",
          "name": "ids",
          "type": "uint256[]"
        },
        {
          "internalType": "uint256[]",
          "name": "values",
          "type": "uint256[]"
        }
      ],
      "name": "burnBatch",
      "outputs": [],
      "stateMutability": "nonpayable",
      "type": "function"
    },
    {
      "inputs": [
        {
          "internalType": "uint256",
          "name": "id",
          "type": "uint256"
        }
      ],
      "name": "exists",
      "outputs": [
        {
          "internalType": "bool",
          "name": "",
          "type": "bool"
        }
      ],
      "stateMutability": "view",
      "type": "function",
      "constant": true
    },
    {
      "inputs": [
        {
          "internalType": "bytes32",
          "name": "role",
          "type": "bytes32"
        }
      ],
      "name": "getRoleAdmin",
      "outputs": [
        {
          "internalType": "bytes32",
          "name": "",
          "type": "bytes32"
        }
      ],
      "stateMutability": "view",
      "type": "function",
      "constant": true
    },
    {
      "inputs": [
        {
          "internalType": "bytes32",
          "name": "role",
          "type": "bytes32"
        },
        {
          "internalType": "address",
          "name": "account",
          "type": "address"
        }
      ],
      "name": "grantRole",
      "outputs": [],
      "stateMutability": "nonpayable",
      "type": "function"
    },
    {
      "inputs": [
        {
          "internalType": "bytes32",
          "name": "role",
          "type": "bytes32"
        },
        {
          "internalType": "address",
          "name": "account",
          "type": "address"
        }
      ],
      "name": "hasRole",
      "outputs": [
        {
          "internalType": "bool",
          "name": "",
          "type": "bool"
        }
      ],
      "stateMutability": "view",
      "type": "function",
      "constant": true
    },
    {
      "inputs": [
        {
          "internalType": "address",
          "name": "account",
          "type": "address"
        },
        {
          "internalType": "address",
          "name": "operator",
          "type": "address"
        }
      ],
      "name": "isApprovedForAll",
      "outputs": [
        {
          "internalType": "bool",
          "name": "",
          "type": "bool"
        }
      ],
      "stateMutability": "view",
      "type": "function",
      "constant": true
    },
    {
      "inputs": [],
      "name": "owner",
      "outputs": [
        {
          "internalType": "address",
          "name": "",
          "type": "address"
        }
      ],
      "stateMutability": "view",
      "type": "function",
      "constant": true
    },
    {
      "inputs": [
        {
          "internalType": "bytes32",
          "name": "role",
          "type": "bytes32"
        },
        {
          "internalType": "address",
          "name": "account",
          "type": "address"
        }
      ],
      "name": "renounceRole",
      "outputs": [],
      "stateMutability": "nonpayable",
      "type": "function"
    },
    {
      "inputs": [
        {
          "internalType": "bytes32",
          "name": "role",
          "type": "bytes32"
        },
        {
          "internalType": "address",
          "name": "account",
          "type": "address"
        }
      ],
      "name": "revokeRole",
      "outputs": [],
      "stateMutability": "nonpayable",
      "type": "function"
    },
    {
      "inputs": [
        {
          "internalType": "address",
          "name": "from",
          "type": "address"
        },
        {
          "internalType": "address",
          "name": "to",
          "type": "address"
        },
        {
          "internalType": "uint256[]",
          "name": "ids",
          "type": "uint256[]"
        },
        {
          "internalType": "uint256[]",
          "name": "amounts",
          "type": "uint256[]"
        },
        {
          "internalType": "bytes",
          "name": "data",
          "type": "bytes"
        }
      ],
      "name": "safeBatchTransferFrom",
      "outputs": [],
      "stateMutability": "nonpayable",
      "type": "function"
    },
    {
      "inputs": [
        {
          "internalType": "address",
          "name": "from",
          "type": "address"
        },
        {
          "internalType": "address",
          "name": "to",
          "type": "address"
        },
        {
          "internalType": "uint256",
          "name": "id",
          "type": "uint256"
        },
        {
          "internalType": "uint256",
          "name": "amount",
          "type": "uint256"
        },
        {
          "internalType": "bytes",
          "name": "data",
          "type": "bytes"
        }
      ],
      "name": "safeTransferFrom",
      "outputs": [],
      "stateMutability": "nonpayable",
      "type": "function"
    },
    {
      "inputs": [
        {
          "internalType": "address",
          "name": "operator",
          "type": "address"
        },
        {
          "internalType": "bool",
          "name": "approved",
          "type": "bool"
        }
      ],
      "name": "setApprovalForAll",
      "outputs": [],
      "stateMutability": "nonpayable",
      "type": "function"
    },
    {
      "inputs": [
        {
          "internalType": "uint256",
          "name": "id",
          "type": "uint256"
        }
      ],
      "name": "totalSupply",
      "outputs": [
        {
          "internalType": "uint256",
          "name": "",
          "type": "uint256"
        }
      ],
      "stateMutability": "view",
      "type": "function",
      "constant": true
    },
    {
      "inputs": [],
      "name": "name",
      "outputs": [
        {
          "internalType": "string",
          "name": "",
          "type": "string"
        }
      ],
      "stateMutability": "view",
      "type": "function",
      "constant": true
    },
    {
      "inputs": [],
      "name": "symbol",
      "outputs": [
        {
          "internalType": "string",
          "name": "",
          "type": "string"
        }
      ],
      "stateMutability": "view",
      "type": "function",
      "constant": true
    },
    {
      "inputs": [
        {
          "internalType": "address",
          "name": "newOwner",
          "type": "address"
        }
      ],
      "name": "transferOwnership",
      "outputs": [
        {
          "internalType": "bool",
          "name": "",
          "type": "bool"
        }
      ],
      "stateMutability": "nonpayable",
      "type": "function"
    },
    {
      "inputs": [
        {
          "internalType": "string",
          "name": "uri_",
          "type": "string"
        }
      ],
      "name": "setBaseURI",
      "outputs": [
        {
          "internalType": "bool",
          "name": "",
          "type": "bool"
        }
      ],
      "stateMutability": "nonpayable",
      "type": "function"
    },
    {
      "inputs": [
        {
          "internalType": "uint256",
          "name": "tokenId",
          "type": "uint256"
        },
        {
          "internalType": "address",
          "name": "receiver",
          "type": "address"
        }
      ],
      "name": "mint",
      "outputs": [],
      "stateMutability": "nonpayable",
      "type": "function"
    },
    {
      "inputs": [
        {
          "internalType": "uint256",
          "name": "tokenId",
          "type": "uint256"
        }
      ],
      "name": "uri",
      "outputs": [
        {
          "internalType": "string",
          "name": "",
          "type": "string"
        }
      ],
      "stateMutability": "view",
      "type": "function",
      "constant": true
    },
    {
      "inputs": [
        {
          "internalType": "bytes4",
          "name": "interfaceId",
          "type": "bytes4"
        }
      ],
      "name": "supportsInterface",
      "outputs": [
        {
          "internalType": "bool",
          "name": "",
          "type": "bool"
        }
      ],
      "stateMutability": "view",
      "type": "function",
      "constant": true
    }
  ],
  "bytecode": "0x60806040523480156200001157600080fd5b506040516200594438038062005944833981810160405281019062000037919062000456565b8062000049816200011d60201b60201c565b5080600790816200005b91906200075a565b506200006c6200013260201b60201c565b600a60006101000a81548173ffffffffffffffffffffffffffffffffffffffff021916908373ffffffffffffffffffffffffffffffffffffffff160217905550620000de7f41444d494e5f524f4c4500000000000000000000000000000000000000000000336200013a60201b60201c565b8260089081620000ef91906200075a565b5081600990816200010191906200075a565b506200011460056200015060201b60201c565b50505062000841565b80600290816200012e91906200075a565b5050565b600033905090565b6200014c82826200016660201b60201c565b5050565b6001816000016000828254019250508190555050565b6200017882826200025860201b60201c565b620002545760016004600084815260200190815260200160002060000160008373ffffffffffffffffffffffffffffffffffffffff1673ffffffffffffffffffffffffffffffffffffffff16815260200190815260200160002060006101000a81548160ff021916908315150217905550620001f96200013260201b60201c565b73ffffffffffffffffffffffffffffffffffffffff168173ffffffffffffffffffffffffffffffffffffffff16837f2f8788117e7eff1d82e926ec794901d17c78024a50270940304540a733656f0d60405160405180910390a45b5050565b60006004600084815260200190815260200160002060000160008373ffffffffffffffffffffffffffffffffffffffff1673ffffffffffffffffffffffffffffffffffffffff16815260200190815260200160002060009054906101000a900460ff16905092915050565b6000604051905090565b600080fd5b600080fd5b600080fd5b600080fd5b6000601f19601f8301169050919050565b7f4e487b7100000000000000000000000000000000000000000000000000000000600052604160045260246000fd5b6200032c82620002e1565b810181811067ffffffffffffffff821117156200034e576200034d620002f2565b5b80604052505050565b600062000363620002c3565b905062000371828262000321565b919050565b600067ffffffffffffffff821115620003945762000393620002f2565b5b6200039f82620002e1565b9050602081019050919050565b60005b83811015620003cc578082015181840152602081019050620003af565b60008484015250505050565b6000620003ef620003e98462000376565b62000357565b9050828152602081018484840111156200040e576200040d620002dc565b5b6200041b848285620003ac565b509392505050565b600082601f8301126200043b576200043a620002d7565b5b81516200044d848260208601620003d8565b91505092915050565b600080600060608486031215620004725762000471620002cd565b5b600084015167ffffffffffffffff811115620004935762000492620002d2565b5b620004a18682870162000423565b935050602084015167ffffffffffffffff811115620004c557620004c4620002d2565b5b620004d38682870162000423565b925050604084015167ffffffffffffffff811115620004f757620004f6620002d2565b5b620005058682870162000423565b9150509250925092565b600081519050919050565b7f4e487b7100000000000000000000000000000000000000000000000000000000600052602260045260246000fd5b600060028204905060018216806200056257607f821691505b6020821081036200057857620005776200051a565b5b50919050565b60008190508160005260206000209050919050565b60006020601f8301049050919050565b600082821b905092915050565b600060088302620005e27fffffffffffffffffffffffffffffffffffffffffffffffffffffffffffffffff82620005a3565b620005ee8683620005a3565b95508019841693508086168417925050509392505050565b6000819050919050565b6000819050919050565b60006200063b620006356200062f8462000606565b62000610565b62000606565b9050919050565b6000819050919050565b62000657836200061a565b6200066f620006668262000642565b848454620005b0565b825550505050565b600090565b6200068662000677565b620006938184846200064c565b505050565b5b81811015620006bb57620006af6000826200067c565b60018101905062000699565b5050565b601f8211156200070a57620006d4816200057e565b620006df8462000593565b81016020851015620006ef578190505b62000707620006fe8562000593565b83018262000698565b50505b505050565b600082821c905092915050565b60006200072f600019846008026200070f565b1980831691505092915050565b60006200074a83836200071c565b9150826002028217905092915050565b62000765826200050f565b67ffffffffffffffff811115620007815762000780620002f2565b5b6200078d825462000549565b6200079a828285620006bf565b600060209050601f831160018114620007d25760008415620007bd578287015190505b620007c985826200073c565b86555062000839565b601f198416620007e2866200057e565b60005b828110156200080c57848901518255600182019150602085019450602081019050620007e5565b868310156200082c578489015162000828601f8916826200071c565b8355505b6001600288020188555050505b505050505050565b6150f380620008516000396000f3fe608060405234801561001057600080fd5b50600436106101725760003560e01c806375b238fc116100de578063a22cb46511610097578063e985e9c511610071578063e985e9c514610481578063f242432a146104b1578063f2fde38b146104cd578063f5298aca146104fd57610172565b8063a22cb46514610419578063bd85b03914610435578063d547741f1461046557610172565b806375b238fc146103555780638da5cb5b1461037357806391d148541461039157806394bf804d146103c157806395d89b41146103dd578063a217fddf146103fb57610172565b80632f2ff15d116101305780632f2ff15d1461027157806336568abe1461028d5780634e1273f4146102a95780634f558e79146102d957806355f804b3146103095780636b20c4541461033957610172565b8062fdd58e1461017757806301ffc9a7146101a757806306fdde03146101d75780630e89341c146101f5578063248a9ca3146102255780632eb2c2d614610255575b600080fd5b610191600480360381019061018c91906130d6565b610519565b60405161019e9190613125565b60405180910390f35b6101c160048036038101906101bc9190613198565b6105e1565b6040516101ce91906131e0565b60405180910390f35b6101df6105f3565b6040516101ec919061328b565b60405180910390f35b61020f600480360381019061020a91906132ad565b610685565b60405161021c919061328b565b60405180910390f35b61023f600480360381019061023a9190613310565b610823565b60405161024c919061334c565b60405180910390f35b61026f600480360381019061026a9190613564565b610843565b005b61028b60048036038101906102869190613633565b6108e4565b005b6102a760048036038101906102a29190613633565b610905565b005b6102c360048036038101906102be9190613736565b610988565b6040516102d0919061386c565b60405180910390f35b6102f360048036038101906102ee91906132ad565b610aa1565b60405161030091906131e0565b60405180910390f35b610323600480360381019061031e919061392f565b610ab5565b60405161033091906131e0565b60405180910390f35b610353600480360381019061034e9190613978565b610bb9565b005b61035d610c56565b60405161036a919061334c565b60405180910390f35b61037b610c7a565b6040516103889190613a12565b60405180910390f35b6103ab60048036038101906103a69190613633565b610ca0565b6040516103b891906131e0565b60405180910390f35b6103db60048036038101906103d69190613a2d565b610d0b565b005b6103e5610dec565b6040516103f2919061328b565b60405180910390f35b610403610e7e565b604051610410919061334c565b60405180910390f35b610433600480360381019061042e9190613a99565b610e85565b005b61044f600480360381019061044a91906132ad565b610e9b565b60405161045c9190613125565b60405180910390f35b61047f600480360381019061047a9190613633565b610eb8565b005b61049b60048036038101906104969190613ad9565b610ed9565b6040516104a891906131e0565b60405180910390f35b6104cb60048036038101906104c69190613b19565b610f6d565b005b6104e760048036038101906104e29190613bb0565b61100e565b6040516104f491906131e0565b60405180910390f35b61051760048036038101906105129190613bdd565b6111e6565b005b60008073ffffffffffffffffffffffffffffffffffffffff168373ffffffffffffffffffffffffffffffffffffffff1603610589576040517f08c379a000000000000000000000000000000000000000000000000000000000815260040161058090613ca2565b60405180910390fd5b60008083815260200190815260200160002060008473ffffffffffffffffffffffffffffffffffffffff1673ffffffffffffffffffffffffffffffffffffffff16815260200190815260200160002054905092915050565b60006105ec82611283565b9050919050565b60606008805461060290613cf1565b80601f016020809104026020016040519081016040528092919081815260200182805461062e90613cf1565b801561067b5780601f106106505761010080835404028352916020019161067b565b820191906000526020600020905b81548152906001019060200180831161065e57829003601f168201915b5050505050905090565b606061069082610aa1565b6106cf576040517f08c379a00000000000000000000000000000000000000000000000000000000081526004016106c690613d94565b60405180910390fd5b60006006600084815260200190815260200160002080546106ef90613cf1565b80601f016020809104026020016040519081016040528092919081815260200182805461071b90613cf1565b80156107685780601f1061073d57610100808354040283529160200191610768565b820191906000526020600020905b81548152906001019060200180831161074b57829003601f168201915b5050505050905060006007805461077e90613cf1565b90500361078e578091505061081e565b6000815111156107c3576007816040516020016107ac929190613ed4565b60405160208183030381529060405291505061081e565b6000600780546107d290613cf1565b9050116107ee576040518060200160405280600081525061081a565b60076107f9846112fd565b60405160200161080a929190613f03565b6040516020818303038152906040525b9150505b919050565b600060046000838152602001908152602001600020600101549050919050565b61084b6113cb565b73ffffffffffffffffffffffffffffffffffffffff168573ffffffffffffffffffffffffffffffffffffffff16148061089157506108908561088b6113cb565b610ed9565b5b6108d0576040517f08c379a00000000000000000000000000000000000000000000000000000000081526004016108c790613f99565b60405180910390fd5b6108dd85858585856113d3565b5050505050565b6108ed82610823565b6108f6816116f4565b6109008383611708565b505050565b61090d6113cb565b73ffffffffffffffffffffffffffffffffffffffff168173ffffffffffffffffffffffffffffffffffffffff161461097a576040517f08c379a00000000000000000000000000000000000000000000000000000000081526004016109719061402b565b60405180910390fd5b61098482826117e9565b5050565b606081518351146109ce576040517f08c379a00000000000000000000000000000000000000000000000000000000081526004016109c5906140bd565b60405180910390fd5b6000835167ffffffffffffffff8111156109eb576109ea61336c565b5b604051908082528060200260200182016040528015610a195781602001602082028036833780820191505090505b50905060005b8451811015610a9657610a66858281518110610a3e57610a3d6140dd565b5b6020026020010151858381518110610a5957610a586140dd565b5b6020026020010151610519565b828281518110610a7957610a786140dd565b5b60200260200101818152505080610a8f9061413b565b9050610a1f565b508091505092915050565b600080610aad83610e9b565b119050919050565b60003373ffffffffffffffffffffffffffffffffffffffff16600a60009054906101000a900473ffffffffffffffffffffffffffffffffffffffff1673ffffffffffffffffffffffffffffffffffffffff1614610b47576040517f08c379a0000000000000000000000000000000000000000000000000000000008152600401610b3e906141cf565b60405180910390fd5b81604051610b5591906141ef565b60405180910390206007604051610b6c9190614206565b60405180910390207fc41b7cb64e5be01af4afc2641afc861432136270f4206b7773f229b658b9669960405160405180910390a38160079081610baf91906143b4565b5060019050919050565b610bc16113cb565b73ffffffffffffffffffffffffffffffffffffffff168373ffffffffffffffffffffffffffffffffffffffff161480610c075750610c0683610c016113cb565b610ed9565b5b610c46576040517f08c379a0000000000000000000000000000000000000000000000000000000008152600401610c3d90613f99565b60405180910390fd5b610c518383836118cb565b505050565b7fa49807205ce4d355092ef5a8a18f56e8913cf4a201fbe287825b095693c2177581565b600a60009054906101000a900473ffffffffffffffffffffffffffffffffffffffff1681565b60006004600084815260200190815260200160002060000160008373ffffffffffffffffffffffffffffffffffffffff1673ffffffffffffffffffffffffffffffffffffffff16815260200190815260200160002060009054906101000a900460ff16905092915050565b7f41444d494e5f524f4c4500000000000000000000000000000000000000000000610d35816116f4565b60008314158015610d47575060058311155b610d86576040517f08c379a0000000000000000000000000000000000000000000000000000000008152600401610d7d906144d2565b60405180910390fd5b610db4828460018587604051602001610da092919061455b565b604051602081830303815290604052611b99565b610dbd836112fd565b600660008581526020019081526020016000209081610ddc91906143b4565b50610de76005611d49565b505050565b606060098054610dfb90613cf1565b80601f0160208091040260200160405190810160405280929190818152602001828054610e2790613cf1565b8015610e745780601f10610e4957610100808354040283529160200191610e74565b820191906000526020600020905b815481529060010190602001808311610e5757829003601f168201915b5050505050905090565b6000801b81565b610e97610e906113cb565b8383611d5f565b5050565b600060036000838152602001908152602001600020549050919050565b610ec182610823565b610eca816116f4565b610ed483836117e9565b505050565b6000600160008473ffffffffffffffffffffffffffffffffffffffff1673ffffffffffffffffffffffffffffffffffffffff16815260200190815260200160002060008373ffffffffffffffffffffffffffffffffffffffff1673ffffffffffffffffffffffffffffffffffffffff16815260200190815260200160002060009054906101000a900460ff16905092915050565b610f756113cb565b73ffffffffffffffffffffffffffffffffffffffff168573ffffffffffffffffffffffffffffffffffffffff161480610fbb5750610fba85610fb56113cb565b610ed9565b5b610ffa576040517f08c379a0000000000000000000000000000000000000000000000000000000008152600401610ff190613f99565b60405180910390fd5b6110078585858585611ecb565b5050505050565b60007f41444d494e5f524f4c450000000000000000000000000000000000000000000061103a816116f4565b600073ffffffffffffffffffffffffffffffffffffffff168373ffffffffffffffffffffffffffffffffffffffff16036110a9576040517f08c379a00000000000000000000000000000000000000000000000000000000081526004016110a0906145f9565b60405180910390fd5b6110f57f41444d494e5f524f4c4500000000000000000000000000000000000000000000600a60009054906101000a900473ffffffffffffffffffffffffffffffffffffffff166117e9565b8273ffffffffffffffffffffffffffffffffffffffff16600a60009054906101000a900473ffffffffffffffffffffffffffffffffffffffff1673ffffffffffffffffffffffffffffffffffffffff167f8be0079c531659141344cd1fd0a4f28419497f9722a3daafe3b4186f6b6457e060405160405180910390a382600a60006101000a81548173ffffffffffffffffffffffffffffffffffffffff021916908373ffffffffffffffffffffffffffffffffffffffff1602179055506111dc7f41444d494e5f524f4c450000000000000000000000000000000000000000000084612166565b6001915050919050565b6111ee6113cb565b73ffffffffffffffffffffffffffffffffffffffff168373ffffffffffffffffffffffffffffffffffffffff16148061123457506112338361122e6113cb565b610ed9565b5b611273576040517f08c379a000000000000000000000000000000000000000000000000000000000815260040161126a90613f99565b60405180910390fd5b61127e838383612174565b505050565b60007f7965db0b000000000000000000000000000000000000000000000000000000007bffffffffffffffffffffffffffffffffffffffffffffffffffffffff1916827bffffffffffffffffffffffffffffffffffffffffffffffffffffffff191614806112f657506112f5826123ba565b5b9050919050565b60606000600161130c8461249c565b01905060008167ffffffffffffffff81111561132b5761132a61336c565b5b6040519080825280601f01601f19166020018201604052801561135d5781602001600182028036833780820191505090505b509050600082602001820190505b6001156113c0578080600190039150507f3031323334353637383961626364656600000000000000000000000000000000600a86061a8153600a85816113b4576113b3614619565b5b0494506000850361136b575b819350505050919050565b600033905090565b8151835114611417576040517f08c379a000000000000000000000000000000000000000000000000000000000815260040161140e906146ba565b60405180910390fd5b600073ffffffffffffffffffffffffffffffffffffffff168473ffffffffffffffffffffffffffffffffffffffff1603611486576040517f08c379a000000000000000000000000000000000000000000000000000000000815260040161147d9061474c565b60405180910390fd5b60006114906113cb565b90506114a08187878787876125ef565b60005b84518110156116515760008582815181106114c1576114c06140dd565b5b6020026020010151905060008583815181106114e0576114df6140dd565b5b60200260200101519050600080600084815260200190815260200160002060008b73ffffffffffffffffffffffffffffffffffffffff1673ffffffffffffffffffffffffffffffffffffffff16815260200190815260200160002054905081811015611581576040517f08c379a0000000000000000000000000000000000000000000000000000000008152600401611578906147de565b60405180910390fd5b81810360008085815260200190815260200160002060008c73ffffffffffffffffffffffffffffffffffffffff1673ffffffffffffffffffffffffffffffffffffffff168152602001908152602001600020819055508160008085815260200190815260200160002060008b73ffffffffffffffffffffffffffffffffffffffff1673ffffffffffffffffffffffffffffffffffffffff168152602001908152602001600020600082825461163691906147fe565b925050819055505050508061164a9061413b565b90506114a3565b508473ffffffffffffffffffffffffffffffffffffffff168673ffffffffffffffffffffffffffffffffffffffff168273ffffffffffffffffffffffffffffffffffffffff167f4a39dc06d4c0dbc64b70af90fd698a233a518aa5d07e595d983b8c0526c8f7fb87876040516116c8929190614832565b60405180910390a46116de8187878787876126ab565b6116ec8187878787876126b3565b505050505050565b611705816117006113cb565b61288a565b50565b6117128282610ca0565b6117e55760016004600084815260200190815260200160002060000160008373ffffffffffffffffffffffffffffffffffffffff1673ffffffffffffffffffffffffffffffffffffffff16815260200190815260200160002060006101000a81548160ff02191690831515021790555061178a6113cb565b73ffffffffffffffffffffffffffffffffffffffff168173ffffffffffffffffffffffffffffffffffffffff16837f2f8788117e7eff1d82e926ec794901d17c78024a50270940304540a733656f0d60405160405180910390a45b5050565b6117f38282610ca0565b156118c75760006004600084815260200190815260200160002060000160008373ffffffffffffffffffffffffffffffffffffffff1673ffffffffffffffffffffffffffffffffffffffff16815260200190815260200160002060006101000a81548160ff02191690831515021790555061186c6113cb565b73ffffffffffffffffffffffffffffffffffffffff168173ffffffffffffffffffffffffffffffffffffffff16837ff6391f5c32d9c69d2a47ea670b442974b53935d1edc7fd64eb21e047a839171b60405160405180910390a45b5050565b600073ffffffffffffffffffffffffffffffffffffffff168373ffffffffffffffffffffffffffffffffffffffff160361193a576040517f08c379a0000000000000000000000000000000000000000000000000000000008152600401611931906148db565b60405180910390fd5b805182511461197e576040517f08c379a0000000000000000000000000000000000000000000000000000000008152600401611975906146ba565b60405180910390fd5b60006119886113cb565b90506119a8818560008686604051806020016040528060008152506125ef565b60005b8351811015611af55760008482815181106119c9576119c86140dd565b5b6020026020010151905060008483815181106119e8576119e76140dd565b5b60200260200101519050600080600084815260200190815260200160002060008973ffffffffffffffffffffffffffffffffffffffff1673ffffffffffffffffffffffffffffffffffffffff16815260200190815260200160002054905081811015611a89576040517f08c379a0000000000000000000000000000000000000000000000000000000008152600401611a809061496d565b60405180910390fd5b81810360008085815260200190815260200160002060008a73ffffffffffffffffffffffffffffffffffffffff1673ffffffffffffffffffffffffffffffffffffffff168152602001908152602001600020819055505050508080611aed9061413b565b9150506119ab565b50600073ffffffffffffffffffffffffffffffffffffffff168473ffffffffffffffffffffffffffffffffffffffff168273ffffffffffffffffffffffffffffffffffffffff167f4a39dc06d4c0dbc64b70af90fd698a233a518aa5d07e595d983b8c0526c8f7fb8686604051611b6d929190614832565b60405180910390a4611b93818560008686604051806020016040528060008152506126ab565b50505050565b600073ffffffffffffffffffffffffffffffffffffffff168473ffffffffffffffffffffffffffffffffffffffff1603611c08576040517f08c379a0000000000000000000000000000000000000000000000000000000008152600401611bff906149ff565b60405180910390fd5b6000611c126113cb565b90506000611c1f8561290f565b90506000611c2c8561290f565b9050611c3d836000898585896125ef565b8460008088815260200190815260200160002060008973ffffffffffffffffffffffffffffffffffffffff1673ffffffffffffffffffffffffffffffffffffffff1681526020019081526020016000206000828254611c9c91906147fe565b925050819055508673ffffffffffffffffffffffffffffffffffffffff16600073ffffffffffffffffffffffffffffffffffffffff168473ffffffffffffffffffffffffffffffffffffffff167fc3d58168c5ae7397731d063d5bbf3d657854427343f4c083240f7aacaa2d0f628989604051611d1a929190614a1f565b60405180910390a4611d31836000898585896126ab565b611d4083600089898989612989565b50505050505050565b6001816000016000828254019250508190555050565b8173ffffffffffffffffffffffffffffffffffffffff168373ffffffffffffffffffffffffffffffffffffffff1603611dcd576040517f08c379a0000000000000000000000000000000000000000000000000000000008152600401611dc490614aba565b60405180910390fd5b80600160008573ffffffffffffffffffffffffffffffffffffffff1673ffffffffffffffffffffffffffffffffffffffff16815260200190815260200160002060008473ffffffffffffffffffffffffffffffffffffffff1673ffffffffffffffffffffffffffffffffffffffff16815260200190815260200160002060006101000a81548160ff0219169083151502179055508173ffffffffffffffffffffffffffffffffffffffff168373ffffffffffffffffffffffffffffffffffffffff167f17307eab39ab6107e8899845ad3d59bd9653f200f220920489ca2b5937696c3183604051611ebe91906131e0565b60405180910390a3505050565b600073ffffffffffffffffffffffffffffffffffffffff168473ffffffffffffffffffffffffffffffffffffffff1603611f3a576040517f08c379a0000000000000000000000000000000000000000000000000000000008152600401611f319061474c565b60405180910390fd5b6000611f446113cb565b90506000611f518561290f565b90506000611f5e8561290f565b9050611f6e8389898585896125ef565b600080600088815260200190815260200160002060008a73ffffffffffffffffffffffffffffffffffffffff1673ffffffffffffffffffffffffffffffffffffffff16815260200190815260200160002054905085811015612005576040517f08c379a0000000000000000000000000000000000000000000000000000000008152600401611ffc906147de565b60405180910390fd5b85810360008089815260200190815260200160002060008b73ffffffffffffffffffffffffffffffffffffffff1673ffffffffffffffffffffffffffffffffffffffff168152602001908152602001600020819055508560008089815260200190815260200160002060008a73ffffffffffffffffffffffffffffffffffffffff1673ffffffffffffffffffffffffffffffffffffffff16815260200190815260200160002060008282546120ba91906147fe565b925050819055508773ffffffffffffffffffffffffffffffffffffffff168973ffffffffffffffffffffffffffffffffffffffff168573ffffffffffffffffffffffffffffffffffffffff167fc3d58168c5ae7397731d063d5bbf3d657854427343f4c083240f7aacaa2d0f628a8a604051612137929190614a1f565b60405180910390a461214d848a8a86868a6126ab565b61215b848a8a8a8a8a612989565b505050505050505050565b6121708282611708565b5050565b600073ffffffffffffffffffffffffffffffffffffffff168373ffffffffffffffffffffffffffffffffffffffff16036121e3576040517f08c379a00000000000000000000000000000000000000000000000000000000081526004016121da906148db565b60405180910390fd5b60006121ed6113cb565b905060006121fa8461290f565b905060006122078461290f565b9050612227838760008585604051806020016040528060008152506125ef565b600080600087815260200190815260200160002060008873ffffffffffffffffffffffffffffffffffffffff1673ffffffffffffffffffffffffffffffffffffffff168152602001908152602001600020549050848110156122be576040517f08c379a00000000000000000000000000000000000000000000000000000000081526004016122b59061496d565b60405180910390fd5b84810360008088815260200190815260200160002060008973ffffffffffffffffffffffffffffffffffffffff1673ffffffffffffffffffffffffffffffffffffffff16815260200190815260200160002081905550600073ffffffffffffffffffffffffffffffffffffffff168773ffffffffffffffffffffffffffffffffffffffff168573ffffffffffffffffffffffffffffffffffffffff167fc3d58168c5ae7397731d063d5bbf3d657854427343f4c083240f7aacaa2d0f62898960405161238b929190614a1f565b60405180910390a46123b1848860008686604051806020016040528060008152506126ab565b50505050505050565b60007fd9b67a26000000000000000000000000000000000000000000000000000000007bffffffffffffffffffffffffffffffffffffffffffffffffffffffff1916827bffffffffffffffffffffffffffffffffffffffffffffffffffffffff1916148061248557507f0e89341c000000000000000000000000000000000000000000000000000000007bffffffffffffffffffffffffffffffffffffffffffffffffffffffff1916827bffffffffffffffffffffffffffffffffffffffffffffffffffffffff1916145b80612495575061249482612b60565b5b9050919050565b600080600090507a184f03e93ff9f4daa797ed6e38ed64bf6a1f01000000000000000083106124fa577a184f03e93ff9f4daa797ed6e38ed64bf6a1f01000000000000000083816124f0576124ef614619565b5b0492506040810190505b6d04ee2d6d415b85acef81000000008310612537576d04ee2d6d415b85acef8100000000838161252d5761252c614619565b5b0492506020810190505b662386f26fc10000831061256657662386f26fc10000838161255c5761255b614619565b5b0492506010810190505b6305f5e100831061258f576305f5e100838161258557612584614619565b5b0492506008810190505b61271083106125b45761271083816125aa576125a9614619565b5b0492506004810190505b606483106125d757606483816125cd576125cc614619565b5b0492506002810190505b600a83106125e6576001810190505b80915050919050565b600073ffffffffffffffffffffffffffffffffffffffff168573ffffffffffffffffffffffffffffffffffffffff1614806126565750600073ffffffffffffffffffffffffffffffffffffffff168473ffffffffffffffffffffffffffffffffffffffff16145b612695576040517f08c379a000000000000000000000000000000000000000000000000000000000815260040161268c90614b26565b60405180910390fd5b6126a3868686868686612bca565b505050505050565b505050505050565b6126d28473ffffffffffffffffffffffffffffffffffffffff16612d9a565b15612882578373ffffffffffffffffffffffffffffffffffffffff1663bc197c8187878686866040518663ffffffff1660e01b8152600401612718959493929190614b9b565b6020604051808303816000875af192505050801561275457506040513d601f19601f820116820180604052508101906127519190614c18565b60015b6127f957612760614c52565b806308c379a0036127bc5750612774614c74565b8061277f57506127be565b806040517f08c379a00000000000000000000000000000000000000000000000000000000081526004016127b3919061328b565b60405180910390fd5b505b6040517f08c379a00000000000000000000000000000000000000000000000000000000081526004016127f090614d76565b60405180910390fd5b63bc197c8160e01b7bffffffffffffffffffffffffffffffffffffffffffffffffffffffff1916817bffffffffffffffffffffffffffffffffffffffffffffffffffffffff191614612880576040517f08c379a000000000000000000000000000000000000000000000000000000000815260040161287790614e08565b60405180910390fd5b505b505050505050565b6128948282610ca0565b61290b576128a181612dbd565b6128af8360001c6020612dea565b6040516020016128c0929190614ec0565b6040516020818303038152906040526040517f08c379a0000000000000000000000000000000000000000000000000000000008152600401612902919061328b565b60405180910390fd5b5050565b60606000600167ffffffffffffffff81111561292e5761292d61336c565b5b60405190808252806020026020018201604052801561295c5781602001602082028036833780820191505090505b5090508281600081518110612974576129736140dd565b5b60200260200101818152505080915050919050565b6129a88473ffffffffffffffffffffffffffffffffffffffff16612d9a565b15612b58578373ffffffffffffffffffffffffffffffffffffffff1663f23a6e6187878686866040518663ffffffff1660e01b81526004016129ee959493929190614efa565b6020604051808303816000875af1925050508015612a2a57506040513d601f19601f82011682018060405250810190612a279190614c18565b60015b612acf57612a36614c52565b806308c379a003612a925750612a4a614c74565b80612a555750612a94565b806040517f08c379a0000000000000000000000000000000000000000000000000000000008152600401612a89919061328b565b60405180910390fd5b505b6040517f08c379a0000000000000000000000000000000000000000000000000000000008152600401612ac690614d76565b60405180910390fd5b63f23a6e6160e01b7bffffffffffffffffffffffffffffffffffffffffffffffffffffffff1916817bffffffffffffffffffffffffffffffffffffffffffffffffffffffff191614612b56576040517f08c379a0000000000000000000000000000000000000000000000000000000008152600401612b4d90614e08565b60405180910390fd5b505b505050505050565b60007f01ffc9a7000000000000000000000000000000000000000000000000000000007bffffffffffffffffffffffffffffffffffffffffffffffffffffffff1916827bffffffffffffffffffffffffffffffffffffffffffffffffffffffff1916149050919050565b612bd8868686868686613026565b600073ffffffffffffffffffffffffffffffffffffffff168573ffffffffffffffffffffffffffffffffffffffff1603612c895760005b8351811015612c8757828181518110612c2b57612c2a6140dd565b5b602002602001015160036000868481518110612c4a57612c496140dd565b5b602002602001015181526020019081526020016000206000828254612c6f91906147fe565b9250508190555080612c809061413b565b9050612c0f565b505b600073ffffffffffffffffffffffffffffffffffffffff168473ffffffffffffffffffffffffffffffffffffffff1603612d925760005b8351811015612d90576000848281518110612cde57612cdd6140dd565b5b602002602001015190506000848381518110612cfd57612cfc6140dd565b5b6020026020010151905060006003600084815260200190815260200160002054905081811015612d62576040517f08c379a0000000000000000000000000000000000000000000000000000000008152600401612d5990614fc6565b60405180910390fd5b818103600360008581526020019081526020016000208190555050505080612d899061413b565b9050612cc0565b505b505050505050565b6000808273ffffffffffffffffffffffffffffffffffffffff163b119050919050565b6060612de38273ffffffffffffffffffffffffffffffffffffffff16601460ff16612dea565b9050919050565b606060006002836002612dfd9190614fe6565b612e0791906147fe565b67ffffffffffffffff811115612e2057612e1f61336c565b5b6040519080825280601f01601f191660200182016040528015612e525781602001600182028036833780820191505090505b5090507f300000000000000000000000000000000000000000000000000000000000000081600081518110612e8a57612e896140dd565b5b60200101907effffffffffffffffffffffffffffffffffffffffffffffffffffffffffffff1916908160001a9053507f780000000000000000000000000000000000000000000000000000000000000081600181518110612eee57612eed6140dd565b5b60200101907effffffffffffffffffffffffffffffffffffffffffffffffffffffffffffff1916908160001a90535060006001846002612f2e9190614fe6565b612f3891906147fe565b90505b6001811115612fd8577f3031323334353637383961626364656600000000000000000000000000000000600f861660108110612f7a57612f796140dd565b5b1a60f81b828281518110612f9157612f906140dd565b5b60200101907effffffffffffffffffffffffffffffffffffffffffffffffffffffffffffff1916908160001a905350600485901c945080612fd190615028565b9050612f3b565b506000841461301c576040517f08c379a00000000000000000000000000000000000000000000000000000000081526004016130139061509d565b60405180910390fd5b8091505092915050565b505050505050565b6000604051905090565b600080fd5b600080fd5b600073ffffffffffffffffffffffffffffffffffffffff82169050919050565b600061306d82613042565b9050919050565b61307d81613062565b811461308857600080fd5b50565b60008135905061309a81613074565b92915050565b6000819050919050565b6130b3816130a0565b81146130be57600080fd5b50565b6000813590506130d0816130aa565b92915050565b600080604083850312156130ed576130ec613038565b5b60006130fb8582860161308b565b925050602061310c858286016130c1565b9150509250929050565b61311f816130a0565b82525050565b600060208201905061313a6000830184613116565b92915050565b60007fffffffff0000000000000000000000000000000000000000000000000000000082169050919050565b61317581613140565b811461318057600080fd5b50565b6000813590506131928161316c565b92915050565b6000602082840312156131ae576131ad613038565b5b60006131bc84828501613183565b91505092915050565b60008115159050919050565b6131da816131c5565b82525050565b60006020820190506131f560008301846131d1565b92915050565b600081519050919050565b600082825260208201905092915050565b60005b8381101561323557808201518184015260208101905061321a565b60008484015250505050565b6000601f19601f8301169050919050565b600061325d826131fb565b6132678185613206565b9350613277818560208601613217565b61328081613241565b840191505092915050565b600060208201905081810360008301526132a58184613252565b905092915050565b6000602082840312156132c3576132c2613038565b5b60006132d1848285016130c1565b91505092915050565b6000819050919050565b6132ed816132da565b81146132f857600080fd5b50565b60008135905061330a816132e4565b92915050565b60006020828403121561332657613325613038565b5b6000613334848285016132fb565b91505092915050565b613346816132da565b82525050565b6000602082019050613361600083018461333d565b92915050565b600080fd5b7f4e487b7100000000000000000000000000000000000000000000000000000000600052604160045260246000fd5b6133a482613241565b810181811067ffffffffffffffff821117156133c3576133c261336c565b5b80604052505050565b60006133d661302e565b90506133e2828261339b565b919050565b600067ffffffffffffffff8211156134025761340161336c565b5b602082029050602081019050919050565b600080fd5b600061342b613426846133e7565b6133cc565b9050808382526020820190506020840283018581111561344e5761344d613413565b5b835b81811015613477578061346388826130c1565b845260208401935050602081019050613450565b5050509392505050565b600082601f83011261349657613495613367565b5b81356134a6848260208601613418565b91505092915050565b600080fd5b600067ffffffffffffffff8211156134cf576134ce61336c565b5b6134d882613241565b9050602081019050919050565b82818337600083830152505050565b6000613507613502846134b4565b6133cc565b905082815260208101848484011115613523576135226134af565b5b61352e8482856134e5565b509392505050565b600082601f83011261354b5761354a613367565b5b813561355b8482602086016134f4565b91505092915050565b600080600080600060a086880312156135805761357f613038565b5b600061358e8882890161308b565b955050602061359f8882890161308b565b945050604086013567ffffffffffffffff8111156135c0576135bf61303d565b5b6135cc88828901613481565b935050606086013567ffffffffffffffff8111156135ed576135ec61303d565b5b6135f988828901613481565b925050608086013567ffffffffffffffff81111561361a5761361961303d565b5b61362688828901613536565b9150509295509295909350565b6000806040838503121561364a57613649613038565b5b6000613658858286016132fb565b92505060206136698582860161308b565b9150509250929050565b600067ffffffffffffffff82111561368e5761368d61336c565b5b602082029050602081019050919050565b60006136b26136ad84613673565b6133cc565b905080838252602082019050602084028301858111156136d5576136d4613413565b5b835b818110156136fe57806136ea888261308b565b8452602084019350506020810190506136d7565b5050509392505050565b600082601f83011261371d5761371c613367565b5b813561372d84826020860161369f565b91505092915050565b6000806040838503121561374d5761374c613038565b5b600083013567ffffffffffffffff81111561376b5761376a61303d565b5b61377785828601613708565b925050602083013567ffffffffffffffff8111156137985761379761303d565b5b6137a485828601613481565b9150509250929050565b600081519050919050565b600082825260208201905092915050565b6000819050602082019050919050565b6137e3816130a0565b82525050565b60006137f583836137da565b60208301905092915050565b6000602082019050919050565b6000613819826137ae565b61382381856137b9565b935061382e836137ca565b8060005b8381101561385f57815161384688826137e9565b975061385183613801565b925050600181019050613832565b5085935050505092915050565b60006020820190508181036000830152613886818461380e565b905092915050565b600067ffffffffffffffff8211156138a9576138a861336c565b5b6138b282613241565b9050602081019050919050565b60006138d26138cd8461388e565b6133cc565b9050828152602081018484840111156138ee576138ed6134af565b5b6138f98482856134e5565b509392505050565b600082601f83011261391657613915613367565b5b81356139268482602086016138bf565b91505092915050565b60006020828403121561394557613944613038565b5b600082013567ffffffffffffffff8111156139635761396261303d565b5b61396f84828501613901565b91505092915050565b60008060006060848603121561399157613990613038565b5b600061399f8682870161308b565b935050602084013567ffffffffffffffff8111156139c0576139bf61303d565b5b6139cc86828701613481565b925050604084013567ffffffffffffffff8111156139ed576139ec61303d565b5b6139f986828701613481565b9150509250925092565b613a0c81613062565b82525050565b6000602082019050613a276000830184613a03565b92915050565b60008060408385031215613a4457613a43613038565b5b6000613a52858286016130c1565b9250506020613a638582860161308b565b9150509250929050565b613a76816131c5565b8114613a8157600080fd5b50565b600081359050613a9381613a6d565b92915050565b60008060408385031215613ab057613aaf613038565b5b6000613abe8582860161308b565b9250506020613acf85828601613a84565b9150509250929050565b60008060408385031215613af057613aef613038565b5b6000613afe8582860161308b565b9250506020613b0f8582860161308b565b9150509250929050565b600080600080600060a08688031215613b3557613b34613038565b5b6000613b438882890161308b565b9550506020613b548882890161308b565b9450506040613b65888289016130c1565b9350506060613b76888289016130c1565b925050608086013567ffffffffffffffff811115613b9757613b9661303d565b5b613ba388828901613536565b9150509295509295909350565b600060208284031215613bc657613bc5613038565b5b6000613bd48482850161308b565b91505092915050565b600080600060608486031215613bf657613bf5613038565b5b6000613c048682870161308b565b9350506020613c15868287016130c1565b9250506040613c26868287016130c1565b9150509250925092565b7f455243313135353a2061646472657373207a65726f206973206e6f742061207660008201527f616c6964206f776e657200000000000000000000000000000000000000000000602082015250565b6000613c8c602a83613206565b9150613c9782613c30565b604082019050919050565b60006020820190508181036000830152613cbb81613c7f565b9050919050565b7f4e487b7100000000000000000000000000000000000000000000000000000000600052602260045260246000fd5b60006002820490506001821680613d0957607f821691505b602082108103613d1c57613d1b613cc2565b5b50919050565b7f4552433131353555524953746f726167653a2055524920717565727920666f7260008201527f206e6f6e6578697374656e7420746f6b656e0000000000000000000000000000602082015250565b6000613d7e603283613206565b9150613d8982613d22565b604082019050919050565b60006020820190508181036000830152613dad81613d71565b9050919050565b600081905092915050565b60008190508160005260206000209050919050565b60008154613de181613cf1565b613deb8186613db4565b94506001821660008114613e065760018114613e1b57613e4e565b60ff1983168652811515820286019350613e4e565b613e2485613dbf565b60005b83811015613e4657815481890152600182019150602081019050613e27565b838801955050505b50505092915050565b6000613e62826131fb565b613e6c8185613db4565b9350613e7c818560208601613217565b80840191505092915050565b7f2e706e6700000000000000000000000000000000000000000000000000000000600082015250565b6000613ebe600483613db4565b9150613ec982613e88565b600482019050919050565b6000613ee08285613dd4565b9150613eec8284613e57565b9150613ef782613eb1565b91508190509392505050565b6000613f0f8285613dd4565b9150613f1b8284613e57565b91508190509392505050565b7f455243313135353a2063616c6c6572206973206e6f7420746f6b656e206f776e60008201527f6572206f7220617070726f766564000000000000000000000000000000000000602082015250565b6000613f83602e83613206565b9150613f8e82613f27565b604082019050919050565b60006020820190508181036000830152613fb281613f76565b9050919050565b7f416363657373436f6e74726f6c3a2063616e206f6e6c792072656e6f756e636560008201527f20726f6c657320666f722073656c660000000000000000000000000000000000602082015250565b6000614015602f83613206565b915061402082613fb9565b604082019050919050565b6000602082019050818103600083015261404481614008565b9050919050565b7f455243313135353a206163636f756e747320616e6420696473206c656e67746860008201527f206d69736d617463680000000000000000000000000000000000000000000000602082015250565b60006140a7602983613206565b91506140b28261404b565b604082019050919050565b600060208201905081810360008301526140d68161409a565b9050919050565b7f4e487b7100000000000000000000000000000000000000000000000000000000600052603260045260246000fd5b7f4e487b7100000000000000000000000000000000000000000000000000000000600052601160045260246000fd5b6000614146826130a0565b91507fffffffffffffffffffffffffffffffffffffffffffffffffffffffffffffffff82036141785761417761410c565b5b600182019050919050565b7f4f776e61626c653a2063616c6c6572206973206e6f7420746865206f776e6572600082015250565b60006141b9602083613206565b91506141c482614183565b602082019050919050565b600060208201905081810360008301526141e8816141ac565b9050919050565b60006141fb8284613e57565b915081905092915050565b60006142128284613dd4565b915081905092915050565b60006020601f8301049050919050565b600082821b905092915050565b60006008830261426a7fffffffffffffffffffffffffffffffffffffffffffffffffffffffffffffffff8261422d565b614274868361422d565b95508019841693508086168417925050509392505050565b6000819050919050565b60006142b16142ac6142a7846130a0565b61428c565b6130a0565b9050919050565b6000819050919050565b6142cb83614296565b6142df6142d7826142b8565b84845461423a565b825550505050565b600090565b6142f46142e7565b6142ff8184846142c2565b505050565b5b81811015614323576143186000826142ec565b600181019050614305565b5050565b601f8211156143685761433981613dbf565b6143428461421d565b81016020851015614351578190505b61436561435d8561421d565b830182614304565b50505b505050565b600082821c905092915050565b600061438b6000198460080261436d565b1980831691505092915050565b60006143a4838361437a565b9150826002028217905092915050565b6143bd826131fb565b67ffffffffffffffff8111156143d6576143d561336c565b5b6143e08254613cf1565b6143eb828285614327565b600060209050601f83116001811461441e576000841561440c578287015190505b6144168582614398565b86555061447e565b601f19841661442c86613dbf565b60005b828110156144545784890151825560018201915060208501945060208101905061442f565b86831015614471578489015161446d601f89168261437a565b8355505b6001600288020188555050505b505050505050565b7f455243313135353a20496e76616c696420746f6b656e49640000000000000000600082015250565b60006144bc601883613206565b91506144c782614486565b602082019050919050565b600060208201905081810360008301526144eb816144af565b9050919050565b60008160601b9050919050565b600061450a826144f2565b9050919050565b600061451c826144ff565b9050919050565b61453461452f82613062565b614511565b82525050565b6000819050919050565b614555614550826130a0565b61453a565b82525050565b60006145678285614523565b6014820191506145778284614544565b6020820191508190509392505050565b7f4f776e61626c653a206e6577206f776e657220697320746865207a65726f206160008201527f6464726573730000000000000000000000000000000000000000000000000000602082015250565b60006145e3602683613206565b91506145ee82614587565b604082019050919050565b60006020820190508181036000830152614612816145d6565b9050919050565b7f4e487b7100000000000000000000000000000000000000000000000000000000600052601260045260246000fd5b7f455243313135353a2069647320616e6420616d6f756e7473206c656e6774682060008201527f6d69736d61746368000000000000000000000000000000000000000000000000602082015250565b60006146a4602883613206565b91506146af82614648565b604082019050919050565b600060208201905081810360008301526146d381614697565b9050919050565b7f455243313135353a207472616e7366657220746f20746865207a65726f20616460008201527f6472657373000000000000000000000000000000000000000000000000000000602082015250565b6000614736602583613206565b9150614741826146da565b604082019050919050565b6000602082019050818103600083015261476581614729565b9050919050565b7f455243313135353a20696e73756666696369656e742062616c616e636520666f60008201527f72207472616e7366657200000000000000000000000000000000000000000000602082015250565b60006147c8602a83613206565b91506147d38261476c565b604082019050919050565b600060208201905081810360008301526147f7816147bb565b9050919050565b6000614809826130a0565b9150614814836130a0565b925082820190508082111561482c5761482b61410c565b5b92915050565b6000604082019050818103600083015261484c818561380e565b90508181036020830152614860818461380e565b90509392505050565b7f455243313135353a206275726e2066726f6d20746865207a65726f206164647260008201527f6573730000000000000000000000000000000000000000000000000000000000602082015250565b60006148c5602383613206565b91506148d082614869565b604082019050919050565b600060208201905081810360008301526148f4816148b8565b9050919050565b7f455243313135353a206275726e20616d6f756e7420657863656564732062616c60008201527f616e636500000000000000000000000000000000000000000000000000000000602082015250565b6000614957602483613206565b9150614962826148fb565b604082019050919050565b600060208201905081810360008301526149868161494a565b9050919050565b7f455243313135353a206d696e7420746f20746865207a65726f2061646472657360008201527f7300000000000000000000000000000000000000000000000000000000000000602082015250565b60006149e9602183613206565b91506149f48261498d565b604082019050919050565b60006020820190508181036000830152614a18816149dc565b9050919050565b6000604082019050614a346000830185613116565b614a416020830184613116565b9392505050565b7f455243313135353a2073657474696e6720617070726f76616c2073746174757360008201527f20666f722073656c660000000000000000000000000000000000000000000000602082015250565b6000614aa4602983613206565b9150614aaf82614a48565b604082019050919050565b60006020820190508181036000830152614ad381614a97565b9050919050565b7f455243313135353a20496e76616c6964206f7065726174696f6e000000000000600082015250565b6000614b10601a83613206565b9150614b1b82614ada565b602082019050919050565b60006020820190508181036000830152614b3f81614b03565b9050919050565b600081519050919050565b600082825260208201905092915050565b6000614b6d82614b46565b614b778185614b51565b9350614b87818560208601613217565b614b9081613241565b840191505092915050565b600060a082019050614bb06000830188613a03565b614bbd6020830187613a03565b8181036040830152614bcf818661380e565b90508181036060830152614be3818561380e565b90508181036080830152614bf78184614b62565b90509695505050505050565b600081519050614c128161316c565b92915050565b600060208284031215614c2e57614c2d613038565b5b6000614c3c84828501614c03565b91505092915050565b60008160e01c9050919050565b600060033d1115614c715760046000803e614c6e600051614c45565b90505b90565b600060443d10614d0157614c8661302e565b60043d036004823e80513d602482011167ffffffffffffffff82111715614cae575050614d01565b808201805167ffffffffffffffff811115614ccc5750505050614d01565b80602083010160043d038501811115614ce9575050505050614d01565b614cf88260200185018661339b565b82955050505050505b90565b7f455243313135353a207472616e7366657220746f206e6f6e2d4552433131353560008201527f526563656976657220696d706c656d656e746572000000000000000000000000602082015250565b6000614d60603483613206565b9150614d6b82614d04565b604082019050919050565b60006020820190508181036000830152614d8f81614d53565b9050919050565b7f455243313135353a204552433131353552656365697665722072656a6563746560008201527f6420746f6b656e73000000000000000000000000000000000000000000000000602082015250565b6000614df2602883613206565b9150614dfd82614d96565b604082019050919050565b60006020820190508181036000830152614e2181614de5565b9050919050565b7f416363657373436f6e74726f6c3a206163636f756e7420000000000000000000600082015250565b6000614e5e601783613db4565b9150614e6982614e28565b601782019050919050565b7f206973206d697373696e6720726f6c6520000000000000000000000000000000600082015250565b6000614eaa601183613db4565b9150614eb582614e74565b601182019050919050565b6000614ecb82614e51565b9150614ed78285613e57565b9150614ee282614e9d565b9150614eee8284613e57565b91508190509392505050565b600060a082019050614f0f6000830188613a03565b614f1c6020830187613a03565b614f296040830186613116565b614f366060830185613116565b8181036080830152614f488184614b62565b90509695505050505050565b7f455243313135353a206275726e20616d6f756e74206578636565647320746f7460008201527f616c537570706c79000000000000000000000000000000000000000000000000602082015250565b6000614fb0602883613206565b9150614fbb82614f54565b604082019050919050565b60006020820190508181036000830152614fdf81614fa3565b9050919050565b6000614ff1826130a0565b9150614ffc836130a0565b925082820261500a816130a0565b915082820484148315176150215761502061410c565b5b5092915050565b6000615033826130a0565b9150600082036150465761504561410c565b5b600182039050919050565b7f537472696e67733a20686578206c656e67746820696e73756666696369656e74600082015250565b6000615087602083613206565b915061509282615051565b602082019050919050565b600060208201905081810360008301526150b68161507a565b905091905056fea2646970667358221220e709ab6a0953d0137cea7763a4c80802e444f0596f643bb53420b9ceae7a23e964736f6c63430008130033",
  "immutableReferences": {},
  "source": "// SPDX-License-Identifier: UNLICENSED\npragma solidity 0.8.19;\n\nimport \"@openzeppelin/contracts/token/ERC1155/extensions/ERC1155Burnable.sol\";\nimport \"@openzeppelin/contracts/token/ERC1155/extensions/ERC1155Supply.sol\";\nimport \"@openzeppelin/contracts/utils/Context.sol\";\nimport \"@openzeppelin/contracts/utils/Counters.sol\";\nimport \"@openzeppelin/contracts/utils/Strings.sol\";\nimport \"@openzeppelin/contracts/access/AccessControl.sol\";\n\ncontract RankToken is\n    Context,\n    ERC1155Burnable,\n    ERC1155Supply,\n    AccessControl\n{\n    using Counters for Counters.Counter;\n    using Strings for uint256;\n    Counters.Counter private _tokenIdTracker;\n    mapping(uint256 => string) private _tokenURIs;\n\n    // Create a new role identifier for the minter role\n    bytes32 public constant ADMIN_ROLE = keccak256(\"ADMIN_ROLE\");\n\n\n    string private baseTokenURI;\n    string private _name;\n    string private _symbol;\n    address public owner;\n\n    event OwnershipTransferred(\n        address indexed previousOwner,\n        address indexed newOwner\n    );\n    event BaseURIChanged(string indexed uri, string indexed newuri);\n\n    constructor(\n        string memory _tokenName,\n        string memory _tokenSymbol,\n        string memory _baseTokenURI\n    ) ERC1155(_baseTokenURI) {\n        baseTokenURI = _baseTokenURI;\n        owner = _msgSender();\n        _setupRole(\"ADMIN_ROLE\", msg.sender);\n        _name = _tokenName;\n        _symbol = _tokenSymbol;\n        _tokenIdTracker.increment();\n    }\n\n    modifier onlyOwner() {\n        require(owner == msg.sender, \"Ownable: caller is not the owner\");\n        _;\n    }\n\n    function name() external view returns (string memory) {\n        return _name;\n    }\n\n    function symbol() external view returns (string memory) {\n        return _symbol;\n    }\n\n    /** @dev change the Ownership from current owner to newOwner address\n        @param newOwner : newOwner address */\n\n    function transferOwnership(address newOwner)\n        external\n        onlyRole(\"ADMIN_ROLE\")\n        returns (bool)\n    {\n        require(\n            newOwner != address(0),\n            \"Ownable: new owner is the zero address\"\n        );\n        _revokeRole(\"ADMIN_ROLE\", owner);\n        emit OwnershipTransferred(owner, newOwner);\n        owner = newOwner;\n        _setupRole(\"ADMIN_ROLE\", newOwner);\n        return true;\n    }\n\n    function setBaseURI(string memory uri_) external onlyOwner returns (bool) {\n        emit BaseURIChanged(baseTokenURI, uri_);\n        baseTokenURI = uri_;\n        return true;\n    }\n\n    function mint(\n        uint256 tokenId,\n        address receiver\n    ) external virtual onlyRole(\"ADMIN_ROLE\"){\n        // We cannot just use balanceOf to create the new tokenId because tokens\n        // can be burned (destroyed), so we need a separate counter.\n        require(tokenId != 0 && tokenId <= 5, \"ERC1155: Invalid tokenId\");\n        _mint(receiver, tokenId, 1, abi.encodePacked(receiver, tokenId));\n        _tokenURIs[tokenId] = tokenId.toString();\n        _tokenIdTracker.increment();\n    }\n\n    function uri(uint256 tokenId)\n        public\n        view\n        virtual\n        override\n        returns (string memory)\n    {\n        require(\n            exists(tokenId),\n            \"ERC1155URIStorage: URI query for nonexistent token\"\n        );\n\n        string memory _tokenURI = _tokenURIs[tokenId];\n        // If there is no base URI, return the token URI.\n        if (bytes(baseTokenURI).length == 0) {\n            return _tokenURI;\n        }\n        // If both are set, concatenate the baseURI and tokenURI (via abi.encodePacked).\n        if (bytes(_tokenURI).length > 0) {\n            return string(abi.encodePacked(baseTokenURI, _tokenURI, \".png\"));\n        }\n        return\n            bytes(baseTokenURI).length > 0\n                ? string(abi.encodePacked(baseTokenURI, tokenId.toString()))\n                : \"\";\n    }\n\n\n    /**\n     * @dev See {IERC165-supportsInterface}.\n     */\n    function supportsInterface(bytes4 interfaceId)\n        public\n        view\n        virtual\n        override(ERC1155, AccessControl)\n        returns (bool)\n    {\n        return super.supportsInterface(interfaceId);\n    }\n\n    function _beforeTokenTransfer(\n        address _operator,\n        address from,\n        address to,\n        uint256[] memory ids,\n        uint256[] memory amounts,\n        bytes memory data\n    ) internal virtual override(ERC1155Supply, ERC1155) {\n        require(from == address(0) || to == address(0), \"ERC1155: Invalid operation\");\n        super._beforeTokenTransfer(_operator, from, to, ids, amounts, data);\n    }\n}\n",
  "sourcePath": "/Users/apple/Workspace/validusTransfer/contracts/RankToken.sol",
  "compiler": {
    "name": "solc",
    "version": "0.8.19+commit.7dd6d404.Emscripten.clang"
  },
  "schemaVersion": "3.4.13",
  "updatedAt": "2023-06-26T09:35:02.564Z",
  "networkType": "ethereum",
  "devdoc": {
    "events": {
      "ApprovalForAll(address,address,bool)": {
        "details": "Emitted when `account` grants or revokes permission to `operator` to transfer their tokens, according to `approved`."
      },
      "RoleAdminChanged(bytes32,bytes32,bytes32)": {
        "details": "Emitted when `newAdminRole` is set as ``role``'s admin role, replacing `previousAdminRole` `DEFAULT_ADMIN_ROLE` is the starting admin for all roles, despite {RoleAdminChanged} not being emitted signaling this. _Available since v3.1._"
      },
      "RoleGranted(bytes32,address,address)": {
        "details": "Emitted when `account` is granted `role`. `sender` is the account that originated the contract call, an admin role bearer except when using {AccessControl-_setupRole}."
      },
      "RoleRevoked(bytes32,address,address)": {
        "details": "Emitted when `account` is revoked `role`. `sender` is the account that originated the contract call:   - if using `revokeRole`, it is the admin role bearer   - if using `renounceRole`, it is the role bearer (i.e. `account`)"
      },
      "TransferBatch(address,address,address,uint256[],uint256[])": {
        "details": "Equivalent to multiple {TransferSingle} events, where `operator`, `from` and `to` are the same for all transfers."
      },
      "TransferSingle(address,address,address,uint256,uint256)": {
        "details": "Emitted when `value` tokens of token type `id` are transferred from `from` to `to` by `operator`."
      },
      "URI(string,uint256)": {
        "details": "Emitted when the URI for token type `id` changes to `value`, if it is a non-programmatic URI. If an {URI} event was emitted for `id`, the standard https://eips.ethereum.org/EIPS/eip-1155#metadata-extensions[guarantees] that `value` will equal the value returned by {IERC1155MetadataURI-uri}."
      }
    },
    "kind": "dev",
    "methods": {
      "balanceOf(address,uint256)": {
        "details": "See {IERC1155-balanceOf}. Requirements: - `account` cannot be the zero address."
      },
      "balanceOfBatch(address[],uint256[])": {
        "details": "See {IERC1155-balanceOfBatch}. Requirements: - `accounts` and `ids` must have the same length."
      },
      "exists(uint256)": {
        "details": "Indicates whether any token exist with a given id, or not."
      },
      "getRoleAdmin(bytes32)": {
        "details": "Returns the admin role that controls `role`. See {grantRole} and {revokeRole}. To change a role's admin, use {_setRoleAdmin}."
      },
      "grantRole(bytes32,address)": {
        "details": "Grants `role` to `account`. If `account` had not been already granted `role`, emits a {RoleGranted} event. Requirements: - the caller must have ``role``'s admin role. May emit a {RoleGranted} event."
      },
      "hasRole(bytes32,address)": {
        "details": "Returns `true` if `account` has been granted `role`."
      },
      "isApprovedForAll(address,address)": {
        "details": "See {IERC1155-isApprovedForAll}."
      },
      "renounceRole(bytes32,address)": {
        "details": "Revokes `role` from the calling account. Roles are often managed via {grantRole} and {revokeRole}: this function's purpose is to provide a mechanism for accounts to lose their privileges if they are compromised (such as when a trusted device is misplaced). If the calling account had been revoked `role`, emits a {RoleRevoked} event. Requirements: - the caller must be `account`. May emit a {RoleRevoked} event."
      },
      "revokeRole(bytes32,address)": {
        "details": "Revokes `role` from `account`. If `account` had been granted `role`, emits a {RoleRevoked} event. Requirements: - the caller must have ``role``'s admin role. May emit a {RoleRevoked} event."
      },
      "safeBatchTransferFrom(address,address,uint256[],uint256[],bytes)": {
        "details": "See {IERC1155-safeBatchTransferFrom}."
      },
      "safeTransferFrom(address,address,uint256,uint256,bytes)": {
        "details": "See {IERC1155-safeTransferFrom}."
      },
      "setApprovalForAll(address,bool)": {
        "details": "See {IERC1155-setApprovalForAll}."
      },
      "supportsInterface(bytes4)": {
        "details": "See {IERC165-supportsInterface}."
      },
      "totalSupply(uint256)": {
        "details": "Total amount of tokens in with a given id."
      },
      "transferOwnership(address)": {
        "details": "change the Ownership from current owner to newOwner address",
        "params": {
          "newOwner": ": newOwner address "
        }
      }
    },
    "version": 1
  },
  "userdoc": {
    "kind": "user",
    "methods": {},
    "version": 1
  }
}